{
  "contractName": "ProxyData",
  "abi": [
    {
      "constant": true,
      "inputs": [],
      "name": "_implementation",
      "outputs": [
        {
          "name": "",
          "type": "address"
        }
      ],
      "payable": false,
      "stateMutability": "view",
      "type": "function"
    }
  ],
  "bytecode": "0x608060405234801561001057600080fd5b5060e98061001f6000396000f300608060405260043610603f576000357c0100000000000000000000000000000000000000000000000000000000900463ffffffff16806359679b0f146044575b600080fd5b348015604f57600080fd5b5060566098565b604051808273ffffffffffffffffffffffffffffffffffffffff1673ffffffffffffffffffffffffffffffffffffffff16815260200191505060405180910390f35b6000809054906101000a900473ffffffffffffffffffffffffffffffffffffffff16815600a165627a7a72305820b2065332b29a5606e389558824790aa02e26ed2ae4943579ffafdeff573d36500029",
  "source": "pragma solidity ^0.4.23;\n\n/**\n * @title Ownable\n * @dev The Ownable contract has an owner address, and provides basic authorization control\n * functions, this simplifies the implementation of \"user permissions\".\n */\n\ncontract ProxyData {\n     address public _implementation;       \n}",
  "sourcePath": "/Users/dennismacpro/Ascension/SOW-Demo/sow-contracts/contracts/proxy/sow.proxy.data.sol",
  "compiler": {
    "name": "solc",
    "version": "0.4.23+commit.124ca40d.Emscripten.clang"
  },
  "schemaVersion": "3.0.2",
  "updatedAt": "2019-03-31T22:04:01.614Z",
  "devdoc": {
    "methods": {},
    "title": "Ownable"
  },
  "userdoc": {
    "methods": {}
  }
}