{
  "contractName": "SOWContractV1",
  "abi": [
    {
      "anonymous": false,
      "inputs": [
        {
          "indexed": true,
          "name": "contractName",
          "type": "string"
        }
      ],
      "name": "SOWNameSet",
      "type": "event"
    },
    {
      "anonymous": false,
      "inputs": [
        {
          "indexed": true,
          "name": "proposer",
          "type": "address"
        },
        {
          "indexed": true,
          "name": "contractName",
          "type": "string"
        }
      ],
      "name": "SOWProposed",
      "type": "event"
    },
    {
      "anonymous": false,
      "inputs": [
        {
          "indexed": true,
          "name": "worker",
          "type": "address"
        },
        {
          "indexed": true,
          "name": "contractName",
          "type": "string"
        }
      ],
      "name": "SOWWorkerAdded",
      "type": "event"
    },
    {
      "anonymous": false,
      "inputs": [
        {
          "indexed": true,
          "name": "acceptor",
          "type": "address"
        },
        {
          "indexed": true,
          "name": "contractName",
          "type": "string"
        }
      ],
      "name": "SOWAccepted",
      "type": "event"
    },
    {
      "anonymous": false,
      "inputs": [
        {
          "indexed": true,
          "name": "contractName",
          "type": "string"
        }
      ],
      "name": "SOWIsActive",
      "type": "event"
    },
    {
      "anonymous": false,
      "inputs": [
        {
          "indexed": true,
          "name": "contractName",
          "type": "string"
        }
      ],
      "name": "SOWIsExpired",
      "type": "event"
    },
    {
      "anonymous": false,
      "inputs": [
        {
          "indexed": true,
          "name": "startDate",
          "type": "uint256"
        },
        {
          "indexed": true,
          "name": "contractName",
          "type": "string"
        }
      ],
      "name": "SOWStartDateSet",
      "type": "event"
    },
    {
      "anonymous": false,
      "inputs": [
        {
          "indexed": true,
          "name": "startDate",
          "type": "uint256"
        },
        {
          "indexed": true,
          "name": "contractName",
          "type": "string"
        }
      ],
      "name": "SOWEndDateSet",
      "type": "event"
    },
    {
      "anonymous": false,
      "inputs": [
        {
          "indexed": true,
          "name": "startDate",
          "type": "uint256"
        },
        {
          "indexed": true,
          "name": "contractName",
          "type": "string"
        }
      ],
      "name": "SOWRateSet",
      "type": "event"
    },
    {
      "constant": false,
      "inputs": [
        {
          "name": "_contractName",
          "type": "string"
        }
      ],
      "name": "setName",
      "outputs": [
        {
          "name": "",
          "type": "bool"
        }
      ],
      "payable": false,
      "stateMutability": "nonpayable",
      "type": "function"
    },
    {
      "constant": false,
      "inputs": [
        {
          "name": "_proposerAddress",
          "type": "address"
        }
      ],
      "name": "setProposerAddress",
      "outputs": [
        {
          "name": "",
          "type": "bool"
        }
      ],
      "payable": false,
      "stateMutability": "nonpayable",
      "type": "function"
    },
    {
      "constant": false,
      "inputs": [
        {
          "name": "_acceptorAddress",
          "type": "address"
        }
      ],
      "name": "setAcceptorAddress",
      "outputs": [
        {
          "name": "",
          "type": "bool"
        }
      ],
      "payable": false,
      "stateMutability": "nonpayable",
      "type": "function"
    },
    {
      "constant": false,
      "inputs": [
        {
          "name": "_workerAddress",
          "type": "address"
        }
      ],
      "name": "setWorkerAddress",
      "outputs": [
        {
          "name": "",
          "type": "bool"
        }
      ],
      "payable": false,
      "stateMutability": "nonpayable",
      "type": "function"
    },
    {
      "constant": false,
      "inputs": [
        {
          "name": "_startDate",
          "type": "uint256"
        }
      ],
      "name": "setStartDate",
      "outputs": [
        {
          "name": "",
          "type": "bool"
        }
      ],
      "payable": false,
      "stateMutability": "nonpayable",
      "type": "function"
    },
    {
      "constant": false,
      "inputs": [
        {
          "name": "_endDate",
          "type": "uint256"
        }
      ],
      "name": "setEndDate",
      "outputs": [
        {
          "name": "",
          "type": "bool"
        }
      ],
      "payable": false,
      "stateMutability": "nonpayable",
      "type": "function"
    },
    {
      "constant": false,
      "inputs": [
        {
          "name": "_rate",
          "type": "uint256"
        }
      ],
      "name": "setRate",
      "outputs": [
        {
          "name": "",
          "type": "bool"
        }
      ],
      "payable": false,
      "stateMutability": "nonpayable",
      "type": "function"
    },
    {
      "constant": true,
      "inputs": [],
      "name": "getRate",
      "outputs": [
        {
          "name": "rate",
          "type": "uint256"
        }
      ],
      "payable": false,
      "stateMutability": "view",
      "type": "function"
    },
    {
      "constant": true,
      "inputs": [],
      "name": "getWorker",
      "outputs": [
        {
          "name": "worker",
          "type": "address"
        }
      ],
      "payable": false,
      "stateMutability": "view",
      "type": "function"
    },
    {
      "constant": true,
      "inputs": [],
      "name": "checkActive",
      "outputs": [
        {
          "name": "",
          "type": "bool"
        }
      ],
      "payable": false,
      "stateMutability": "view",
      "type": "function"
    }
  ],
  "bytecode": "0x608060405234801561001057600080fd5b50612120806100206000396000f3006080604052600436106100a4576000357c0100000000000000000000000000000000000000000000000000000000900463ffffffff1680631eb48969146100a957806334fcf437146101045780633784f00014610149578063396e5fee1461018e578063679aefce146101bd57806367eaeddb146101e857806382d95df51461023f578063c47f002714610284578063cc30c03114610305578063e83efbbe14610360575b600080fd5b3480156100b557600080fd5b506100ea600480360381019080803573ffffffffffffffffffffffffffffffffffffffff1690602001909291905050506103bb565b604051808215151515815260200191505060405180910390f35b34801561011057600080fd5b5061012f60048036038101908080359060200190929190505050610958565b604051808215151515815260200191505060405180910390f35b34801561015557600080fd5b5061017460048036038101908080359060200190929190505050610bc6565b604051808215151515815260200191505060405180910390f35b34801561019a57600080fd5b506101a3610e34565b604051808215151515815260200191505060405180910390f35b3480156101c957600080fd5b506101d2610f26565b6040518082815260200191505060405180910390f35b3480156101f457600080fd5b506101fd611018565b604051808273ffffffffffffffffffffffffffffffffffffffff1673ffffffffffffffffffffffffffffffffffffffff16815260200191505060405180910390f35b34801561024b57600080fd5b5061026a6004803603810190808035906020019092919050505061110a565b604051808215151515815260200191505060405180910390f35b34801561029057600080fd5b506102eb600480360381019080803590602001908201803590602001908080601f0160208091040260200160405190810160405280939291908181526020018383808284378201915050505050509192919290505050611378565b604051808215151515815260200191505060405180910390f35b34801561031157600080fd5b50610346600480360381019080803573ffffffffffffffffffffffffffffffffffffffff169060200190929190505050611740565b604051808215151515815260200191505060405180910390f35b34801561036c57600080fd5b506103a1600480360381019080803573ffffffffffffffffffffffffffffffffffffffff169060200190929190505050611abb565b604051808215151515815260200191505060405180910390f35b60008015156000809054906101000a900473ffffffffffffffffffffffffffffffffffffffff1673ffffffffffffffffffffffffffffffffffffffff16637ae1cfca6040518163ffffffff167c010000000000000000000000000000000000000000000000000000000002815260040180807f69734163746976650000000000000000000000000000000000000000000000008152506020019050602060405180830381600087803b15801561047057600080fd5b505af1158015610484573d6000803e3d6000fd5b505050506040513d602081101561049a57600080fd5b810190808051906020019092919050505015151415156104b957600080fd5b600015156000809054906101000a900473ffffffffffffffffffffffffffffffffffffffff1673ffffffffffffffffffffffffffffffffffffffff16637ae1cfca6040518163ffffffff167c010000000000000000000000000000000000000000000000000000000002815260040180807f69734578706972656400000000000000000000000000000000000000000000008152506020019050602060405180830381600087803b15801561056d57600080fd5b505af1158015610581573d6000803e3d6000fd5b505050506040513d602081101561059757600080fd5b810190808051906020019092919050505015151415156105b657600080fd5b600073ffffffffffffffffffffffffffffffffffffffff166000809054906101000a900473ffffffffffffffffffffffffffffffffffffffff1673ffffffffffffffffffffffffffffffffffffffff166321f8a7216040518163ffffffff167c010000000000000000000000000000000000000000000000000000000002815260040180807f70726f706f7365720000000000000000000000000000000000000000000000008152506020019050602060405180830381600087803b15801561067e57600080fd5b505af1158015610692573d6000803e3d6000fd5b505050506040513d60208110156106a857600080fd5b810190808051906020019092919050505073ffffffffffffffffffffffffffffffffffffffff161415156106db57600080fd5b600073ffffffffffffffffffffffffffffffffffffffff168273ffffffffffffffffffffffffffffffffffffffff16141515156107a6576040517f08c379a00000000000000000000000000000000000000000000000000000000081526004018080602001828103825260308152602001807f50726f706f73657220416464726573732069732061207a65726f20616464726581526020017f73732c206e6f7420616c6c6f7765642e0000000000000000000000000000000081525060400191505060405180910390fd5b6000809054906101000a900473ffffffffffffffffffffffffffffffffffffffff1673ffffffffffffffffffffffffffffffffffffffff1663ca446dd9836040518263ffffffff167c010000000000000000000000000000000000000000000000000000000002815260040180807f70726f706f7365720000000000000000000000000000000000000000000000008152506020018273ffffffffffffffffffffffffffffffffffffffff1673ffffffffffffffffffffffffffffffffffffffff168152602001915050600060405180830381600087803b15801561088a57600080fd5b505af115801561089e573d6000803e3d6000fd5b505050506108aa611fac565b6040518082805190602001908083835b6020831015156108df57805182526020820191506020810190506020830392506108ba565b6001836020036101000a03801982511681845116808217855250505050505090500191505060405180910390208273ffffffffffffffffffffffffffffffffffffffff167ff4bf703030356058116745a02dcaed389271c8cfeb676c5312da6cacb02e1ab060405160405180910390a360019050919050565b60008015156000809054906101000a900473ffffffffffffffffffffffffffffffffffffffff1673ffffffffffffffffffffffffffffffffffffffff16637ae1cfca6040518163ffffffff167c010000000000000000000000000000000000000000000000000000000002815260040180807f69734578706972656400000000000000000000000000000000000000000000008152506020019050602060405180830381600087803b158015610a0d57600080fd5b505af1158015610a21573d6000803e3d6000fd5b505050506040513d6020811015610a3757600080fd5b81019080805190602001909291905050501515141515610a5657600080fd5b6000809054906101000a900473ffffffffffffffffffffffffffffffffffffffff1673ffffffffffffffffffffffffffffffffffffffff1663e2a4853a836040518263ffffffff167c010000000000000000000000000000000000000000000000000000000002815260040180807f7261746500000000000000000000000000000000000000000000000000000000815250602001828152602001915050600060405180830381600087803b158015610b0e57600080fd5b505af1158015610b22573d6000803e3d6000fd5b50505050610b2e611fac565b6040518082805190602001908083835b602083101515610b635780518252602082019150602081019050602083039250610b3e565b6001836020036101000a0380198251168184511680821785525050505050509050019150506040518091039020827f8b06eb827072b5cd0c9c56665ba51983920466c7a6e50b6294f6c39133939dae60405160405180910390a360019050919050565b60008015156000809054906101000a900473ffffffffffffffffffffffffffffffffffffffff1673ffffffffffffffffffffffffffffffffffffffff16637ae1cfca6040518163ffffffff167c010000000000000000000000000000000000000000000000000000000002815260040180807f69734578706972656400000000000000000000000000000000000000000000008152506020019050602060405180830381600087803b158015610c7b57600080fd5b505af1158015610c8f573d6000803e3d6000fd5b505050506040513d6020811015610ca557600080fd5b81019080805190602001909291905050501515141515610cc457600080fd5b6000809054906101000a900473ffffffffffffffffffffffffffffffffffffffff1673ffffffffffffffffffffffffffffffffffffffff1663e2a4853a836040518263ffffffff167c010000000000000000000000000000000000000000000000000000000002815260040180807f656e644461746500000000000000000000000000000000000000000000000000815250602001828152602001915050600060405180830381600087803b158015610d7c57600080fd5b505af1158015610d90573d6000803e3d6000fd5b50505050610d9c611fac565b6040518082805190602001908083835b602083101515610dd15780518252602082019150602081019050602083039250610dac565b6001836020036101000a0380198251168184511680821785525050505050509050019150506040518091039020827fdd16ac66b295a966a1f971d4ebeaff925eb7901505adcd0b9d34b8b452d3bc5f60405160405180910390a360019050919050565b60008060009054906101000a900473ffffffffffffffffffffffffffffffffffffffff1673ffffffffffffffffffffffffffffffffffffffff16637ae1cfca6040518163ffffffff167c010000000000000000000000000000000000000000000000000000000002815260040180807f69734163746976650000000000000000000000000000000000000000000000008152506020019050602060405180830381600087803b158015610ee657600080fd5b505af1158015610efa573d6000803e3d6000fd5b505050506040513d6020811015610f1057600080fd5b8101908080519060200190929190505050905090565b60008060009054906101000a900473ffffffffffffffffffffffffffffffffffffffff1673ffffffffffffffffffffffffffffffffffffffff1663bd02d0f56040518163ffffffff167c010000000000000000000000000000000000000000000000000000000002815260040180807f72617465000000000000000000000000000000000000000000000000000000008152506020019050602060405180830381600087803b158015610fd857600080fd5b505af1158015610fec573d6000803e3d6000fd5b505050506040513d602081101561100257600080fd5b8101908080519060200190929190505050905090565b60008060009054906101000a900473ffffffffffffffffffffffffffffffffffffffff1673ffffffffffffffffffffffffffffffffffffffff166321f8a7216040518163ffffffff167c010000000000000000000000000000000000000000000000000000000002815260040180807f776f726b657200000000000000000000000000000000000000000000000000008152506020019050602060405180830381600087803b1580156110ca57600080fd5b505af11580156110de573d6000803e3d6000fd5b505050506040513d60208110156110f457600080fd5b8101908080519060200190929190505050905090565b60008015156000809054906101000a900473ffffffffffffffffffffffffffffffffffffffff1673ffffffffffffffffffffffffffffffffffffffff16637ae1cfca6040518163ffffffff167c010000000000000000000000000000000000000000000000000000000002815260040180807f69734578706972656400000000000000000000000000000000000000000000008152506020019050602060405180830381600087803b1580156111bf57600080fd5b505af11580156111d3573d6000803e3d6000fd5b505050506040513d60208110156111e957600080fd5b8101908080519060200190929190505050151514151561120857600080fd5b6000809054906101000a900473ffffffffffffffffffffffffffffffffffffffff1673ffffffffffffffffffffffffffffffffffffffff1663e2a4853a836040518263ffffffff167c010000000000000000000000000000000000000000000000000000000002815260040180807f7374617274446174650000000000000000000000000000000000000000000000815250602001828152602001915050600060405180830381600087803b1580156112c057600080fd5b505af11580156112d4573d6000803e3d6000fd5b505050506112e0611fac565b6040518082805190602001908083835b60208310151561131557805182526020820191506020810190506020830392506112f0565b6001836020036101000a0380198251168184511680821785525050505050509050019150506040518091039020827f83547bdbbbbb5ab9d2ecf0b8a4c16cb34b4a3547cea392ff6723c0ae1a005e5160405160405180910390a360019050919050565b60008015156000809054906101000a900473ffffffffffffffffffffffffffffffffffffffff1673ffffffffffffffffffffffffffffffffffffffff16637ae1cfca6040518163ffffffff167c010000000000000000000000000000000000000000000000000000000002815260040180807f69734163746976650000000000000000000000000000000000000000000000008152506020019050602060405180830381600087803b15801561142d57600080fd5b505af1158015611441573d6000803e3d6000fd5b505050506040513d602081101561145757600080fd5b8101908080519060200190929190505050151514151561147657600080fd5b600015156000809054906101000a900473ffffffffffffffffffffffffffffffffffffffff1673ffffffffffffffffffffffffffffffffffffffff16637ae1cfca6040518163ffffffff167c010000000000000000000000000000000000000000000000000000000002815260040180807f69734578706972656400000000000000000000000000000000000000000000008152506020019050602060405180830381600087803b15801561152a57600080fd5b505af115801561153e573d6000803e3d6000fd5b505050506040513d602081101561155457600080fd5b8101908080519060200190929190505050151514151561157357600080fd5b6000809054906101000a900473ffffffffffffffffffffffffffffffffffffffff1673ffffffffffffffffffffffffffffffffffffffff16636e899550836040518263ffffffff167c010000000000000000000000000000000000000000000000000000000002815260040180807f636f6e74726163744e616d65000000000000000000000000000000000000000081525060200180602001828103825283818151815260200191508051906020019080838360005b83811015611644578082015181840152602081019050611629565b50505050905090810190601f1680156116715780820380516001836020036101000a031916815260200191505b5092505050600060405180830381600087803b15801561169057600080fd5b505af11580156116a4573d6000803e3d6000fd5b50505050816040518082805190602001908083835b6020831015156116de57805182526020820191506020810190506020830392506116b9565b6001836020036101000a03801982511681845116808217855250505050505090500191505060405180910390207fb1f4c5dd42bbcd0e1a2ddcce798d71cb9662626dfb0e8112b240dd9565f6f7d260405160405180910390a260019050919050565b60008015156000809054906101000a900473ffffffffffffffffffffffffffffffffffffffff1673ffffffffffffffffffffffffffffffffffffffff16637ae1cfca6040518163ffffffff167c010000000000000000000000000000000000000000000000000000000002815260040180807f69734578706972656400000000000000000000000000000000000000000000008152506020019050602060405180830381600087803b1580156117f557600080fd5b505af1158015611809573d6000803e3d6000fd5b505050506040513d602081101561181f57600080fd5b8101908080519060200190929190505050151514151561183e57600080fd5b600073ffffffffffffffffffffffffffffffffffffffff168273ffffffffffffffffffffffffffffffffffffffff1614151515611909576040517f08c379a000000000000000000000000000000000000000000000000000000000815260040180806020018281038252602e8152602001807f576f726b657220416464726573732069732061207a65726f206164647265737381526020017f2c206e6f7420616c6c6f7765642e00000000000000000000000000000000000081525060400191505060405180910390fd5b6000809054906101000a900473ffffffffffffffffffffffffffffffffffffffff1673ffffffffffffffffffffffffffffffffffffffff1663ca446dd9836040518263ffffffff167c010000000000000000000000000000000000000000000000000000000002815260040180807f776f726b657200000000000000000000000000000000000000000000000000008152506020018273ffffffffffffffffffffffffffffffffffffffff1673ffffffffffffffffffffffffffffffffffffffff168152602001915050600060405180830381600087803b1580156119ed57600080fd5b505af1158015611a01573d6000803e3d6000fd5b50505050611a0d611fac565b6040518082805190602001908083835b602083101515611a425780518252602082019150602081019050602083039250611a1d565b6001836020036101000a03801982511681845116808217855250505050505090500191505060405180910390208273ffffffffffffffffffffffffffffffffffffffff167f3d54e8c61fabb11353b746d8b70159bca26897fb14822c8502a6df11c2bde2c960405160405180910390a360019050919050565b60008015156000809054906101000a900473ffffffffffffffffffffffffffffffffffffffff1673ffffffffffffffffffffffffffffffffffffffff16637ae1cfca6040518163ffffffff167c010000000000000000000000000000000000000000000000000000000002815260040180807f69734163746976650000000000000000000000000000000000000000000000008152506020019050602060405180830381600087803b158015611b7057600080fd5b505af1158015611b84573d6000803e3d6000fd5b505050506040513d6020811015611b9a57600080fd5b81019080805190602001909291905050501515141515611bb957600080fd5b600015156000809054906101000a900473ffffffffffffffffffffffffffffffffffffffff1673ffffffffffffffffffffffffffffffffffffffff16637ae1cfca6040518163ffffffff167c010000000000000000000000000000000000000000000000000000000002815260040180807f69734578706972656400000000000000000000000000000000000000000000008152506020019050602060405180830381600087803b158015611c6d57600080fd5b505af1158015611c81573d6000803e3d6000fd5b505050506040513d6020811015611c9757600080fd5b81019080805190602001909291905050501515141515611cb657600080fd5b600073ffffffffffffffffffffffffffffffffffffffff166000809054906101000a900473ffffffffffffffffffffffffffffffffffffffff1673ffffffffffffffffffffffffffffffffffffffff166321f8a7216040518163ffffffff167c010000000000000000000000000000000000000000000000000000000002815260040180807f70726f706f7365720000000000000000000000000000000000000000000000008152506020019050602060405180830381600087803b158015611d7e57600080fd5b505af1158015611d92573d6000803e3d6000fd5b505050506040513d6020811015611da857600080fd5b810190808051906020019092919050505073ffffffffffffffffffffffffffffffffffffffff1614151515611ddc57600080fd5b600073ffffffffffffffffffffffffffffffffffffffff168273ffffffffffffffffffffffffffffffffffffffff1614151515611ea7576040517f08c379a00000000000000000000000000000000000000000000000000000000081526004018080602001828103825260308152602001807f50726f706f73657220416464726573732069732061207a65726f20616464726581526020017f73732c206e6f7420616c6c6f7765642e0000000000000000000000000000000081525060400191505060405180910390fd5b6000809054906101000a900473ffffffffffffffffffffffffffffffffffffffff1673ffffffffffffffffffffffffffffffffffffffff1663ca446dd9836040518263ffffffff167c010000000000000000000000000000000000000000000000000000000002815260040180807f6163636570746f720000000000000000000000000000000000000000000000008152506020018273ffffffffffffffffffffffffffffffffffffffff1673ffffffffffffffffffffffffffffffffffffffff168152602001915050600060405180830381600087803b158015611f8b57600080fd5b505af1158015611f9f573d6000803e3d6000fd5b5050505060019050919050565b60606000809054906101000a900473ffffffffffffffffffffffffffffffffffffffff1673ffffffffffffffffffffffffffffffffffffffff1663986e791a6040518163ffffffff167c010000000000000000000000000000000000000000000000000000000002815260040180807f636f6e74726163744e616d6500000000000000000000000000000000000000008152506020019050600060405180830381600087803b15801561205e57600080fd5b505af1158015612072573d6000803e3d6000fd5b505050506040513d6000823e3d601f19601f82011682018060405250602081101561209c57600080fd5b8101908080516401000000008111156120b457600080fd5b828101905060208101848111156120ca57600080fd5b81518560018202830111640100000000821117156120e757600080fd5b50509291905050509050905600a165627a7a723058205861e26be54550e6d6d882fd325f0f7b48ae84831c2ee59c0d8c7fccfc72a3e00029",
  "source": "pragma solidity ^0.4.23;\n\n\nimport \"../ownable/ownable.sol\";\nimport \"../storage/sow.storage.state.sol\";\nimport \"../util/safemath.sol\";\nimport \"../util/AddressUtils.sol\";\nimport \"../logic/sow.header.sol\";\n\n\n/*\naddress of proposer\naddress of acceptor\naddress of consultant\nbool isActive\nbool isExpired\neffectiveDate: DataTypes.DATE, // start date\ncommencementDateOfServices: DataTypes.DATE,\ncompletionDateOfServices: DataTypes.DATE,\nprojectName,\nrate,\nweekStartDay\nsowName (project code)\n*/\n\ncontract SOWContractV1 is SOWHeader, SOWStorageState {\n    // Import safeMath for operations.\n    using SafeMath for uint256;\n    using AddressUtils for address; \n    \n    modifier onlyActive() {\n        require(_storage.getBool(\"isActive\") == true);\n        _;\n    }\n\n     modifier notActive() {       \n        require(_storage.getBool(\"isActive\") == false);\n        _;\n    }  \n\n    modifier notExpired(){\n         require(_storage.getBool(\"isExpired\") == false);\n        _;\n    }\n\n    modifier onlyProposed() {\n         require(_storage.getAddress(\"proposer\") != address(0));\n        _;\n    }\n\n    modifier notProposed() {\n         require(_storage.getAddress(\"proposer\") == address(0));\n        _;\n    }\n\n    modifier onlyProposer(address proposer) {\n         require(_storage.getAddress(\"proposer\") == proposer);\n        _;\n    }\n\n     modifier eitherParticipant(address participant) {\n         require(_storage.getAddress(\"proposer\") == participant || _storage.getAddress(\"acceptor\") == participant);\n        _;\n    }\n\n    function setName(string _contractName) \n        public\n        notActive\n        notExpired\n        returns(bool)\n    {\n        _storage.setString(\"contractName\", _contractName);\n        emit SOWNameSet(_contractName);\n        return true;\n    }\n\n    function setProposerAddress(address _proposerAddress) \n         public \n         notActive \n         notExpired\n         notProposed\n         returns(bool) \n    {\n        require(_proposerAddress != address(0), \"Proposer Address is a zero address, not allowed.\");\n        //require(_proposerAddress.isContract() == false, \"Proposer Address is a contract address, not allowed\");       \n        _storage.setAddress(\"proposer\", _proposerAddress);\n        emit SOWProposed(_proposerAddress,  getName());\n        return true;\n    }\n\n    // the proposer must also accept the proposer\n    function setAcceptorAddress(address _acceptorAddress) \n        public \n        notActive \n        notExpired\n        onlyProposed \n        returns (bool) \n    {\n        require(_acceptorAddress != address(0), \"Proposer Address is a zero address, not allowed.\");\n        //require(_acceptorAddress.isContract() == false, \"Proposer Address is a contract address, not allowed\");\n        _storage.setAddress(\"acceptor\", _acceptorAddress);\n        return true;\n    }\n\n    function setWorkerAddress(address _workerAddress) \n        public        \n        notExpired\n        returns (bool) \n    {\n        require(_workerAddress != address(0), \"Worker Address is a zero address, not allowed.\");\n        //require(_workerAddress.isContract() == false, \"Proposer Address is a contract address, not allowed\");\n        _storage.setAddress(\"worker\", _workerAddress);\n        emit SOWWorkerAdded(_workerAddress, getName());\n        return true;\n    }\n\n    function setStartDate(uint256 _startDate) \n        public         \n        notExpired \n        returns (bool)\n    {\n        _storage.setUint(\"startDate\",_startDate);\n        emit SOWStartDateSet(_startDate, getName());\n        return true;\n    }\n\n     function setEndDate(uint256 _endDate) \n        public         \n        notExpired \n        returns (bool)\n    {\n        _storage.setUint(\"endDate\",_endDate);\n        emit SOWEndDateSet(_endDate, getName());\n        return true;\n    }\n\n    function setRate(uint256 _rate) \n        public\n        notExpired\n        returns (bool)\n    {\n         _storage.setUint(\"rate\",_rate);\n        emit SOWRateSet(_rate, getName());\n        return true;\n    }\n\n    function setActive(address proposer) \n        private\n        notActive \n        notExpired\n        onlyProposer(proposer)\n        returns (bool)\n    {\n        // require\n        require(_storage.getAddress(\"proposer\") != address(0));\n        require(_storage.getAddress(\"acceptor\") != address(0));\n        //require(_storage.getAddress(\"worker\") != address(0));\n        // check dates\n        // check rates\n         _storage.setBool(\"isActive\", true);\n         emit SOWIsActive(getName());\n         return true;\n    }\n\n    function setExpired() \n        private\n        onlyActive\n        returns (bool)\n    {        \n         _storage.setBool(\"isExpired\", true);\n         emit SOWIsExpired(getName());\n         return true;\n    }\n\n    function getRate()\n        public\n        view\n        returns(uint256 rate)\n    {\n        return _storage.getUint(\"rate\");\n    }\n\n    function getWorker()\n        public\n        view\n        returns(address worker)\n    {\n        return _storage.getAddress(\"worker\");\n    }\n\n    function getName()\n        private\n        view\n        returns (string)\n    {\n        return _storage.getString(\"contractName\");\n    }\n\n    function checkActive()\n        public\n        view\n        returns (bool)\n    {\n        return  _storage.getBool(\"isActive\");\n    }\n}",
  "sourcePath": "/Users/dennismacpro/Ascension/SOW-Demo/sow-contracts/contracts/logic/sow.v1.sol",
  "compiler": {
    "name": "solc",
    "version": "0.4.23+commit.124ca40d.Emscripten.clang"
  },
  "schemaVersion": "3.0.2",
  "updatedAt": "2019-05-06T23:42:26.909Z",
  "devdoc": {
    "methods": {}
  },
  "userdoc": {
    "methods": {}
  }
}