{
  "contractName": "SOWContractV1",
  "abi": [
    {
      "anonymous": false,
      "inputs": [
        {
          "indexed": true,
          "name": "proposer",
          "type": "address"
        },
        {
          "indexed": true,
          "name": "contractName",
          "type": "string"
        }
      ],
      "name": "SOWProposed",
      "type": "event"
    },
    {
      "anonymous": false,
      "inputs": [
        {
          "indexed": true,
          "name": "worker",
          "type": "address"
        },
        {
          "indexed": true,
          "name": "contractName",
          "type": "string"
        }
      ],
      "name": "SOWWorkerAdded",
      "type": "event"
    },
    {
      "anonymous": false,
      "inputs": [
        {
          "indexed": true,
          "name": "acceptor",
          "type": "address"
        },
        {
          "indexed": true,
          "name": "contractName",
          "type": "string"
        }
      ],
      "name": "SOWAccepted",
      "type": "event"
    },
    {
      "anonymous": false,
      "inputs": [
        {
          "indexed": true,
          "name": "contractName",
          "type": "string"
        }
      ],
      "name": "SOWIsActive",
      "type": "event"
    },
    {
      "anonymous": false,
      "inputs": [
        {
          "indexed": true,
          "name": "contractName",
          "type": "string"
        }
      ],
      "name": "SOWIsExpired",
      "type": "event"
    },
    {
      "anonymous": false,
      "inputs": [
        {
          "indexed": true,
          "name": "startDate",
          "type": "uint256"
        },
        {
          "indexed": true,
          "name": "contractName",
          "type": "string"
        }
      ],
      "name": "SOWStartDateSet",
      "type": "event"
    },
    {
      "anonymous": false,
      "inputs": [
        {
          "indexed": true,
          "name": "startDate",
          "type": "uint256"
        },
        {
          "indexed": true,
          "name": "contractName",
          "type": "string"
        }
      ],
      "name": "SOWEndDateSet",
      "type": "event"
    },
    {
      "anonymous": false,
      "inputs": [
        {
          "indexed": true,
          "name": "startDate",
          "type": "uint256"
        },
        {
          "indexed": true,
          "name": "contractName",
          "type": "string"
        }
      ],
      "name": "SOWRateSet",
      "type": "event"
    },
    {
      "constant": false,
      "inputs": [
        {
          "name": "_contractName",
          "type": "string"
        }
      ],
      "name": "setName",
      "outputs": [
        {
          "name": "",
          "type": "bool"
        }
      ],
      "payable": false,
      "stateMutability": "nonpayable",
      "type": "function"
    },
    {
      "constant": false,
      "inputs": [
        {
          "name": "_proposerAddress",
          "type": "address"
        }
      ],
      "name": "setProposerAddress",
      "outputs": [
        {
          "name": "",
          "type": "bool"
        }
      ],
      "payable": false,
      "stateMutability": "nonpayable",
      "type": "function"
    },
    {
      "constant": false,
      "inputs": [
        {
          "name": "_acceptorAddress",
          "type": "address"
        }
      ],
      "name": "setAcceptorAddress",
      "outputs": [
        {
          "name": "",
          "type": "bool"
        }
      ],
      "payable": false,
      "stateMutability": "nonpayable",
      "type": "function"
    },
    {
      "constant": false,
      "inputs": [
        {
          "name": "_workerAddress",
          "type": "address"
        }
      ],
      "name": "setWorkerAddress",
      "outputs": [
        {
          "name": "",
          "type": "bool"
        }
      ],
      "payable": false,
      "stateMutability": "nonpayable",
      "type": "function"
    },
    {
      "constant": false,
      "inputs": [
        {
          "name": "_startDate",
          "type": "uint256"
        }
      ],
      "name": "setStartDate",
      "outputs": [
        {
          "name": "",
          "type": "bool"
        }
      ],
      "payable": false,
      "stateMutability": "nonpayable",
      "type": "function"
    },
    {
      "constant": false,
      "inputs": [
        {
          "name": "_endDate",
          "type": "uint256"
        }
      ],
      "name": "setEndDate",
      "outputs": [
        {
          "name": "",
          "type": "bool"
        }
      ],
      "payable": false,
      "stateMutability": "nonpayable",
      "type": "function"
    },
    {
      "constant": false,
      "inputs": [
        {
          "name": "_rate",
          "type": "uint256"
        }
      ],
      "name": "setRate",
      "outputs": [
        {
          "name": "",
          "type": "bool"
        }
      ],
      "payable": false,
      "stateMutability": "nonpayable",
      "type": "function"
    }
  ],
  "bytecode": "0x608060405234801561001057600080fd5b50612330806100206000396000f300608060405260043610610083576000357c0100000000000000000000000000000000000000000000000000000000900463ffffffff1680631eb489691461008857806334fcf437146100e35780633784f0001461012857806382d95df51461016d578063c47f0027146101b2578063cc30c03114610233578063e83efbbe1461028e575b600080fd5b34801561009457600080fd5b506100c9600480360381019080803573ffffffffffffffffffffffffffffffffffffffff1690602001909291905050506102e9565b604051808215151515815260200191505060405180910390f35b3480156100ef57600080fd5b5061010e600480360381019080803590602001909291905050506106b4565b604051808215151515815260200191505060405180910390f35b34801561013457600080fd5b5061015360048036038101908080359060200190929190505050610922565b604051808215151515815260200191505060405180910390f35b34801561017957600080fd5b5061019860048036038101908080359060200190929190505050610c8d565b604051808215151515815260200191505060405180910390f35b3480156101be57600080fd5b50610219600480360381019080803590602001908201803590602001908080601f0160208091040260200160405190810160405280939291908181526020018383808284378201915050505050509192919290505050610ff8565b604051808215151515815260200191505060405180910390f35b34801561023f57600080fd5b50610274600480360381019080803573ffffffffffffffffffffffffffffffffffffffff169060200190929190505050611331565b604051808215151515815260200191505060405180910390f35b34801561029a57600080fd5b506102cf600480360381019080803573ffffffffffffffffffffffffffffffffffffffff169060200190929190505050611536565b604051808215151515815260200191505060405180910390f35b60008015156000809054906101000a900473ffffffffffffffffffffffffffffffffffffffff1673ffffffffffffffffffffffffffffffffffffffff16637ae1cfca6040518163ffffffff167c010000000000000000000000000000000000000000000000000000000002815260040180807f69734163746976650000000000000000000000000000000000000000000000008152506020019050602060405180830381600087803b15801561039e57600080fd5b505af11580156103b2573d6000803e3d6000fd5b505050506040513d60208110156103c857600080fd5b810190808051906020019092919050505015151415156103e757600080fd5b600015156000809054906101000a900473ffffffffffffffffffffffffffffffffffffffff1673ffffffffffffffffffffffffffffffffffffffff16637ae1cfca6040518163ffffffff167c010000000000000000000000000000000000000000000000000000000002815260040180807f69734578706972656400000000000000000000000000000000000000000000008152506020019050602060405180830381600087803b15801561049b57600080fd5b505af11580156104af573d6000803e3d6000fd5b505050506040513d60208110156104c557600080fd5b810190808051906020019092919050505015151415156104e457600080fd5b600073ffffffffffffffffffffffffffffffffffffffff168273ffffffffffffffffffffffffffffffffffffffff16141515156105af576040517f08c379a00000000000000000000000000000000000000000000000000000000081526004018080602001828103825260308152602001807f50726f706f73657220416464726573732069732061207a65726f20616464726581526020017f73732c206e6f7420616c6c6f7765642e0000000000000000000000000000000081525060400191505060405180910390fd5b6000809054906101000a900473ffffffffffffffffffffffffffffffffffffffff1673ffffffffffffffffffffffffffffffffffffffff1663ca446dd9836040518263ffffffff167c010000000000000000000000000000000000000000000000000000000002815260040180807f70726f706f7365720000000000000000000000000000000000000000000000008152506020018273ffffffffffffffffffffffffffffffffffffffff1673ffffffffffffffffffffffffffffffffffffffff168152602001915050600060405180830381600087803b15801561069357600080fd5b505af11580156106a7573d6000803e3d6000fd5b5050505060019050919050565b60008015156000809054906101000a900473ffffffffffffffffffffffffffffffffffffffff1673ffffffffffffffffffffffffffffffffffffffff16637ae1cfca6040518163ffffffff167c010000000000000000000000000000000000000000000000000000000002815260040180807f69734578706972656400000000000000000000000000000000000000000000008152506020019050602060405180830381600087803b15801561076957600080fd5b505af115801561077d573d6000803e3d6000fd5b505050506040513d602081101561079357600080fd5b810190808051906020019092919050505015151415156107b257600080fd5b6000809054906101000a900473ffffffffffffffffffffffffffffffffffffffff1673ffffffffffffffffffffffffffffffffffffffff1663e2a4853a836040518263ffffffff167c010000000000000000000000000000000000000000000000000000000002815260040180807f7261746500000000000000000000000000000000000000000000000000000000815250602001828152602001915050600060405180830381600087803b15801561086a57600080fd5b505af115801561087e573d6000803e3d6000fd5b5050505061088a611add565b6040518082805190602001908083835b6020831015156108bf578051825260208201915060208101905060208303925061089a565b6001836020036101000a0380198251168184511680821785525050505050509050019150506040518091039020827f8b06eb827072b5cd0c9c56665ba51983920466c7a6e50b6294f6c39133939dae60405160405180910390a360019050919050565b60008015156000809054906101000a900473ffffffffffffffffffffffffffffffffffffffff1673ffffffffffffffffffffffffffffffffffffffff16637ae1cfca6040518163ffffffff167c010000000000000000000000000000000000000000000000000000000002815260040180807f69734163746976650000000000000000000000000000000000000000000000008152506020019050602060405180830381600087803b1580156109d757600080fd5b505af11580156109eb573d6000803e3d6000fd5b505050506040513d6020811015610a0157600080fd5b81019080805190602001909291905050501515141515610a2057600080fd5b600015156000809054906101000a900473ffffffffffffffffffffffffffffffffffffffff1673ffffffffffffffffffffffffffffffffffffffff16637ae1cfca6040518163ffffffff167c010000000000000000000000000000000000000000000000000000000002815260040180807f69734578706972656400000000000000000000000000000000000000000000008152506020019050602060405180830381600087803b158015610ad457600080fd5b505af1158015610ae8573d6000803e3d6000fd5b505050506040513d6020811015610afe57600080fd5b81019080805190602001909291905050501515141515610b1d57600080fd5b6000809054906101000a900473ffffffffffffffffffffffffffffffffffffffff1673ffffffffffffffffffffffffffffffffffffffff1663e2a4853a836040518263ffffffff167c010000000000000000000000000000000000000000000000000000000002815260040180807f656e644461746500000000000000000000000000000000000000000000000000815250602001828152602001915050600060405180830381600087803b158015610bd557600080fd5b505af1158015610be9573d6000803e3d6000fd5b50505050610bf5611add565b6040518082805190602001908083835b602083101515610c2a5780518252602082019150602081019050602083039250610c05565b6001836020036101000a0380198251168184511680821785525050505050509050019150506040518091039020827fdd16ac66b295a966a1f971d4ebeaff925eb7901505adcd0b9d34b8b452d3bc5f60405160405180910390a360019050919050565b60008015156000809054906101000a900473ffffffffffffffffffffffffffffffffffffffff1673ffffffffffffffffffffffffffffffffffffffff16637ae1cfca6040518163ffffffff167c010000000000000000000000000000000000000000000000000000000002815260040180807f69734163746976650000000000000000000000000000000000000000000000008152506020019050602060405180830381600087803b158015610d4257600080fd5b505af1158015610d56573d6000803e3d6000fd5b505050506040513d6020811015610d6c57600080fd5b81019080805190602001909291905050501515141515610d8b57600080fd5b600015156000809054906101000a900473ffffffffffffffffffffffffffffffffffffffff1673ffffffffffffffffffffffffffffffffffffffff16637ae1cfca6040518163ffffffff167c010000000000000000000000000000000000000000000000000000000002815260040180807f69734578706972656400000000000000000000000000000000000000000000008152506020019050602060405180830381600087803b158015610e3f57600080fd5b505af1158015610e53573d6000803e3d6000fd5b505050506040513d6020811015610e6957600080fd5b81019080805190602001909291905050501515141515610e8857600080fd5b6000809054906101000a900473ffffffffffffffffffffffffffffffffffffffff1673ffffffffffffffffffffffffffffffffffffffff1663e2a4853a836040518263ffffffff167c010000000000000000000000000000000000000000000000000000000002815260040180807f7374617274446174650000000000000000000000000000000000000000000000815250602001828152602001915050600060405180830381600087803b158015610f4057600080fd5b505af1158015610f54573d6000803e3d6000fd5b50505050610f60611add565b6040518082805190602001908083835b602083101515610f955780518252602082019150602081019050602083039250610f70565b6001836020036101000a0380198251168184511680821785525050505050509050019150506040518091039020827f83547bdbbbbb5ab9d2ecf0b8a4c16cb34b4a3547cea392ff6723c0ae1a005e5160405160405180910390a360019050919050565b60008015156000809054906101000a900473ffffffffffffffffffffffffffffffffffffffff1673ffffffffffffffffffffffffffffffffffffffff16637ae1cfca6040518163ffffffff167c010000000000000000000000000000000000000000000000000000000002815260040180807f69734163746976650000000000000000000000000000000000000000000000008152506020019050602060405180830381600087803b1580156110ad57600080fd5b505af11580156110c1573d6000803e3d6000fd5b505050506040513d60208110156110d757600080fd5b810190808051906020019092919050505015151415156110f657600080fd5b600015156000809054906101000a900473ffffffffffffffffffffffffffffffffffffffff1673ffffffffffffffffffffffffffffffffffffffff16637ae1cfca6040518163ffffffff167c010000000000000000000000000000000000000000000000000000000002815260040180807f69734578706972656400000000000000000000000000000000000000000000008152506020019050602060405180830381600087803b1580156111aa57600080fd5b505af11580156111be573d6000803e3d6000fd5b505050506040513d60208110156111d457600080fd5b810190808051906020019092919050505015151415156111f357600080fd5b6000809054906101000a900473ffffffffffffffffffffffffffffffffffffffff1673ffffffffffffffffffffffffffffffffffffffff16636e899550836040518263ffffffff167c010000000000000000000000000000000000000000000000000000000002815260040180807f636f6e74726163744e616d65000000000000000000000000000000000000000081525060200180602001828103825283818151815260200191508051906020019080838360005b838110156112c45780820151818401526020810190506112a9565b50505050905090810190601f1680156112f15780820380516001836020036101000a031916815260200191505b5092505050600060405180830381600087803b15801561131057600080fd5b505af1158015611324573d6000803e3d6000fd5b5050505060019050919050565b6000600115156000809054906101000a900473ffffffffffffffffffffffffffffffffffffffff1673ffffffffffffffffffffffffffffffffffffffff16637ae1cfca6040518163ffffffff167c010000000000000000000000000000000000000000000000000000000002815260040180807f69734163746976650000000000000000000000000000000000000000000000008152506020019050602060405180830381600087803b1580156113e757600080fd5b505af11580156113fb573d6000803e3d6000fd5b505050506040513d602081101561141157600080fd5b8101908080519060200190929190505050151514151561143057600080fd5b600015156000809054906101000a900473ffffffffffffffffffffffffffffffffffffffff1673ffffffffffffffffffffffffffffffffffffffff16637ae1cfca6040518163ffffffff167c010000000000000000000000000000000000000000000000000000000002815260040180807f69734578706972656400000000000000000000000000000000000000000000008152506020019050602060405180830381600087803b1580156114e457600080fd5b505af11580156114f8573d6000803e3d6000fd5b505050506040513d602081101561150e57600080fd5b8101908080519060200190929190505050151514151561152d57600080fd5b60019050919050565b60008015156000809054906101000a900473ffffffffffffffffffffffffffffffffffffffff1673ffffffffffffffffffffffffffffffffffffffff16637ae1cfca6040518163ffffffff167c010000000000000000000000000000000000000000000000000000000002815260040180807f69734163746976650000000000000000000000000000000000000000000000008152506020019050602060405180830381600087803b1580156115eb57600080fd5b505af11580156115ff573d6000803e3d6000fd5b505050506040513d602081101561161557600080fd5b8101908080519060200190929190505050151514151561163457600080fd5b600015156000809054906101000a900473ffffffffffffffffffffffffffffffffffffffff1673ffffffffffffffffffffffffffffffffffffffff16637ae1cfca6040518163ffffffff167c010000000000000000000000000000000000000000000000000000000002815260040180807f69734578706972656400000000000000000000000000000000000000000000008152506020019050602060405180830381600087803b1580156116e857600080fd5b505af11580156116fc573d6000803e3d6000fd5b505050506040513d602081101561171257600080fd5b8101908080519060200190929190505050151514151561173157600080fd5b600073ffffffffffffffffffffffffffffffffffffffff166000809054906101000a900473ffffffffffffffffffffffffffffffffffffffff1673ffffffffffffffffffffffffffffffffffffffff166321f8a7216040518163ffffffff167c010000000000000000000000000000000000000000000000000000000002815260040180807f70726f706f7365720000000000000000000000000000000000000000000000008152506020019050602060405180830381600087803b1580156117f957600080fd5b505af115801561180d573d6000803e3d6000fd5b505050506040513d602081101561182357600080fd5b810190808051906020019092919050505073ffffffffffffffffffffffffffffffffffffffff161415151561185757600080fd5b600073ffffffffffffffffffffffffffffffffffffffff168273ffffffffffffffffffffffffffffffffffffffff1614151515611922576040517f08c379a00000000000000000000000000000000000000000000000000000000081526004018080602001828103825260308152602001807f50726f706f73657220416464726573732069732061207a65726f20616464726581526020017f73732c206e6f7420616c6c6f7765642e0000000000000000000000000000000081525060400191505060405180910390fd5b6000809054906101000a900473ffffffffffffffffffffffffffffffffffffffff1673ffffffffffffffffffffffffffffffffffffffff1663ca446dd9836040518263ffffffff167c010000000000000000000000000000000000000000000000000000000002815260040180807f6163636570746f720000000000000000000000000000000000000000000000008152506020018273ffffffffffffffffffffffffffffffffffffffff1673ffffffffffffffffffffffffffffffffffffffff168152602001915050600060405180830381600087803b158015611a0657600080fd5b505af1158015611a1a573d6000803e3d6000fd5b50505050611a26611add565b6040518082805190602001908083835b602083101515611a5b5780518252602082019150602081019050602083039250611a36565b6001836020036101000a03801982511681845116808217855250505050505090500191505060405180910390208273ffffffffffffffffffffffffffffffffffffffff167f0608777edff18e5dfc83adca3663fe513c3a15dbb52560f9ef85a89d5f03a16260405160405180910390a3611ad3611c25565b5060019050919050565b60606000809054906101000a900473ffffffffffffffffffffffffffffffffffffffff1673ffffffffffffffffffffffffffffffffffffffff1663986e791a6040518163ffffffff167c010000000000000000000000000000000000000000000000000000000002815260040180807f636f6e74726163744e616d6500000000000000000000000000000000000000008152506020019050600060405180830381600087803b158015611b8f57600080fd5b505af1158015611ba3573d6000803e3d6000fd5b505050506040513d6000823e3d601f19601f820116820180604052506020811015611bcd57600080fd5b810190808051640100000000811115611be557600080fd5b82810190506020810184811115611bfb57600080fd5b8151856001820283011164010000000082111715611c1857600080fd5b5050929190505050905090565b60008015156000809054906101000a900473ffffffffffffffffffffffffffffffffffffffff1673ffffffffffffffffffffffffffffffffffffffff16637ae1cfca6040518163ffffffff167c010000000000000000000000000000000000000000000000000000000002815260040180807f69734163746976650000000000000000000000000000000000000000000000008152506020019050602060405180830381600087803b158015611cda57600080fd5b505af1158015611cee573d6000803e3d6000fd5b505050506040513d6020811015611d0457600080fd5b81019080805190602001909291905050501515141515611d2357600080fd5b600015156000809054906101000a900473ffffffffffffffffffffffffffffffffffffffff1673ffffffffffffffffffffffffffffffffffffffff16637ae1cfca6040518163ffffffff167c010000000000000000000000000000000000000000000000000000000002815260040180807f69734578706972656400000000000000000000000000000000000000000000008152506020019050602060405180830381600087803b158015611dd757600080fd5b505af1158015611deb573d6000803e3d6000fd5b505050506040513d6020811015611e0157600080fd5b81019080805190602001909291905050501515141515611e2057600080fd5b600073ffffffffffffffffffffffffffffffffffffffff166000809054906101000a900473ffffffffffffffffffffffffffffffffffffffff1673ffffffffffffffffffffffffffffffffffffffff166321f8a7216040518163ffffffff167c010000000000000000000000000000000000000000000000000000000002815260040180807f70726f706f7365720000000000000000000000000000000000000000000000008152506020019050602060405180830381600087803b158015611ee857600080fd5b505af1158015611efc573d6000803e3d6000fd5b505050506040513d6020811015611f1257600080fd5b810190808051906020019092919050505073ffffffffffffffffffffffffffffffffffffffff1614151515611f4657600080fd5b600073ffffffffffffffffffffffffffffffffffffffff166000809054906101000a900473ffffffffffffffffffffffffffffffffffffffff1673ffffffffffffffffffffffffffffffffffffffff166321f8a7216040518163ffffffff167c010000000000000000000000000000000000000000000000000000000002815260040180807f6163636570746f720000000000000000000000000000000000000000000000008152506020019050602060405180830381600087803b15801561200e57600080fd5b505af1158015612022573d6000803e3d6000fd5b505050506040513d602081101561203857600080fd5b810190808051906020019092919050505073ffffffffffffffffffffffffffffffffffffffff161415151561206c57600080fd5b600073ffffffffffffffffffffffffffffffffffffffff166000809054906101000a900473ffffffffffffffffffffffffffffffffffffffff1673ffffffffffffffffffffffffffffffffffffffff166321f8a7216040518163ffffffff167c010000000000000000000000000000000000000000000000000000000002815260040180807f776f726b657200000000000000000000000000000000000000000000000000008152506020019050602060405180830381600087803b15801561213457600080fd5b505af1158015612148573d6000803e3d6000fd5b505050506040513d602081101561215e57600080fd5b810190808051906020019092919050505073ffffffffffffffffffffffffffffffffffffffff161415151561219257600080fd5b6000809054906101000a900473ffffffffffffffffffffffffffffffffffffffff1673ffffffffffffffffffffffffffffffffffffffff1663abfdcced60016040518263ffffffff167c010000000000000000000000000000000000000000000000000000000002815260040180807f697341637469766500000000000000000000000000000000000000000000000081525060200182151515158152602001915050600060405180830381600087803b15801561224f57600080fd5b505af1158015612263573d6000803e3d6000fd5b5050505061226f611add565b6040518082805190602001908083835b6020831015156122a4578051825260208201915060208101905060208303925061227f565b6001836020036101000a03801982511681845116808217855250505050505090500191505060405180910390207fef877411dbfc3259981a88062c178617f17b976e22d8131bf7773ed2297a044860405160405180910390a260019050905600a165627a7a7230582043f7876e486ee9ed6351a129e92a32a4420be11ac57c160ca5cd283921bc442c0029",
  "source": "pragma solidity ^0.4.23;\n\n\nimport \"../ownable/ownable.sol\";\nimport \"../storage/sow.storage.state.sol\";\nimport \"../util/safemath.sol\";\nimport \"../util/AddressUtils.sol\";\nimport \"../logic/sow.header.sol\";\n\n\n/*\naddress of proposer\naddress of acceptor\naddress of consultant\nbool isActive\nbool isExpired\neffectiveDate: DataTypes.DATE, // start date\ncommencementDateOfServices: DataTypes.DATE,\ncompletionDateOfServices: DataTypes.DATE,\nprojectName,\nrate,\nweekStartDay\n\n*/\n\ncontract SOWContractV1 is SOWHeader, SOWStorageState {\n    // Import safeMath for operations.\n    using SafeMath for uint256;\n    using AddressUtils for address; \n\n    modifier onlyActive() {\n        require(_storage.getBool(\"isActive\") == true);\n        _;\n    }\n\n     modifier notActive() {       \n        require(_storage.getBool(\"isActive\") == false);\n        _;\n    }  \n\n    modifier notExpired(){\n         require(_storage.getBool(\"isExpired\") == false);\n        _;\n    }\n\n    modifier onlyProposed() {\n         require(_storage.getAddress(\"proposer\") != address(0));\n        _;\n    }\n\n    function setName(string _contractName) \n        public\n        notActive\n        notExpired\n        returns(bool)\n    {\n        _storage.setString(\"contractName\", _contractName);\n        return true;\n    }\n\n    function setProposerAddress(address _proposerAddress) \n         public \n         notActive \n         notExpired\n         returns(bool) \n    {\n        require(_proposerAddress != address(0), \"Proposer Address is a zero address, not allowed.\");\n        //require(_proposerAddress.isContract() == false, \"Proposer Address is a contract address, not allowed\");       \n        _storage.setAddress(\"proposer\", _proposerAddress);\n        return true;\n    }\n\n    function setAcceptorAddress(address _acceptorAddress) \n        public \n        notActive \n        notExpired\n        onlyProposed        \n        returns(bool) \n    {\n        require(_acceptorAddress != address(0), \"Proposer Address is a zero address, not allowed.\");\n        //require(_acceptorAddress.isContract() == false, \"Proposer Address is a contract address, not allowed\");\n        _storage.setAddress(\"acceptor\", _acceptorAddress);\n        emit SOWAccepted(_acceptorAddress,  getName());\n        setActive();\n        return true;\n    }\n\n    function setWorkerAddress(address _workerAddress) \n        public \n        onlyActive \n        notExpired \n        returns(bool) \n    {\n        //require(_workerAddress != address(0), \"Proposer Address is a zero address, not allowed.\");\n        //require(_workerAddress.isContract() == false, \"Proposer Address is a contract address, not allowed\");\n        //_storage.setAddress(\"worker\", _workerAddress);\n        //emit SOWWorkerAdded(_workerAddress, getName());\n        return true;\n    }\n\n    function setStartDate(uint256 _startDate) \n        public\n        notActive \n        notExpired \n        returns (bool)\n    {\n        _storage.setUint(\"startDate\",_startDate);\n        emit SOWStartDateSet(_startDate, getName());\n        return true;\n    }\n\n     function setEndDate(uint256 _endDate) \n        public\n        notActive \n        notExpired \n        returns (bool)\n    {\n        _storage.setUint(\"endDate\",_endDate);\n        emit SOWEndDateSet(_endDate, getName());\n        return true;\n    }\n\n    function setRate(uint256 _rate) \n        public\n        notExpired\n        returns (bool)\n    {\n         _storage.setUint(\"rate\",_rate);\n        emit SOWRateSet(_rate, getName());\n        return true;\n    }\n\n    function setActive() \n        private\n        notActive \n        notExpired\n        returns (bool)\n    {\n        // require\n        require(_storage.getAddress(\"proposer\") != address(0));\n        require(_storage.getAddress(\"acceptor\") != address(0));\n        require(_storage.getAddress(\"worker\") != address(0));\n        // check dates\n        // check rates\n         _storage.setBool(\"isActive\", true);\n         emit SOWIsActive(getName());\n         return true;\n    }\n\n    function setExpired() \n        private\n        onlyActive\n        returns (bool)\n    {        \n         _storage.setBool(\"isExpired\", true);\n         emit SOWIsExpired(getName());\n         return true;\n    }\n\n    function getName()\n        private\n        view\n        returns (string)\n    {\n        return _storage.getString(\"contractName\");\n    }\n}",
  "sourcePath": "/Users/dennismacpro/Ascension/SOW-Demo/sow-contracts/contracts/logic/sow.v1.sol",
  "compiler": {
    "name": "solc",
    "version": "0.4.23+commit.124ca40d.Emscripten.clang"
  },
  "schemaVersion": "3.0.2",
  "updatedAt": "2019-04-01T01:39:13.860Z",
  "devdoc": {
    "methods": {}
  },
  "userdoc": {
    "methods": {}
  }
}