{
  "contractName": "SOWFactoryData",
  "abi": [
    {
      "constant": true,
      "inputs": [
        {
          "name": "",
          "type": "uint256"
        }
      ],
      "name": "_sowContracts",
      "outputs": [
        {
          "name": "",
          "type": "address"
        }
      ],
      "payable": false,
      "stateMutability": "view",
      "type": "function"
    }
  ],
  "bytecode": "0x608060405234801561001057600080fd5b50610117806100206000396000f300608060405260043610603f576000357c0100000000000000000000000000000000000000000000000000000000900463ffffffff1680633446f5e2146044575b600080fd5b348015604f57600080fd5b50606c6004803603810190808035906020019092919050505060ae565b604051808273ffffffffffffffffffffffffffffffffffffffff1673ffffffffffffffffffffffffffffffffffffffff16815260200191505060405180910390f35b60008181548110151560bc57fe5b906000526020600020016000915054906101000a900473ffffffffffffffffffffffffffffffffffffffff16815600a165627a7a72305820f47b3422c78dac16c2fbde6b02f241e109920619c70566e92168a4ebc5935daf0029",
  "source": "pragma solidity ^0.4.23;\n\n\ncontract SOWFactoryData {\n     address[] public _sowContracts;\n}",
  "sourcePath": "/Users/dennismacpro/Ascension/SOW-Demo/sow-contracts/contracts/factory/sow.factory.data.sol",
  "compiler": {
    "name": "solc",
    "version": "0.4.23+commit.124ca40d.Emscripten.clang"
  },
  "schemaVersion": "3.0.2",
  "updatedAt": "2019-04-01T00:30:14.250Z",
  "devdoc": {
    "methods": {}
  },
  "userdoc": {
    "methods": {}
  }
}