{
  "contractName": "SOWFactory",
  "abi": [
    {
      "constant": true,
      "inputs": [
        {
          "name": "",
          "type": "uint256"
        }
      ],
      "name": "_sowContracts",
      "outputs": [
        {
          "name": "",
          "type": "address"
        }
      ],
      "payable": false,
      "stateMutability": "view",
      "type": "function"
    },
    {
      "anonymous": false,
      "inputs": [
        {
          "indexed": true,
          "name": "created",
          "type": "address"
        }
      ],
      "name": "ContractCreated",
      "type": "event"
    },
    {
      "constant": false,
      "inputs": [
        {
          "name": "_owner",
          "type": "address"
        }
      ],
      "name": "createSOW",
      "outputs": [
        {
          "name": "",
          "type": "address"
        }
      ],
      "payable": false,
      "stateMutability": "nonpayable",
      "type": "function"
    },
    {
      "constant": true,
      "inputs": [],
      "name": "getContractCount",
      "outputs": [
        {
          "name": "contractCount",
          "type": "uint256"
        }
      ],
      "payable": false,
      "stateMutability": "view",
      "type": "function"
    }
  ],
  "bytecode": "0x608060405234801561001057600080fd5b506136d2806100206000396000f300608060405260043610610057576000357c0100000000000000000000000000000000000000000000000000000000900463ffffffff1680633446f5e21461005c5780635ebe7716146100c95780639399869d1461014c575b600080fd5b34801561006857600080fd5b5061008760048036038101908080359060200190929190505050610177565b604051808273ffffffffffffffffffffffffffffffffffffffff1673ffffffffffffffffffffffffffffffffffffffff16815260200191505060405180910390f35b3480156100d557600080fd5b5061010a600480360381019080803573ffffffffffffffffffffffffffffffffffffffff1690602001909291905050506101b5565b604051808273ffffffffffffffffffffffffffffffffffffffff1673ffffffffffffffffffffffffffffffffffffffff16815260200191505060405180910390f35b34801561015857600080fd5b5061016161034f565b6040518082815260200191505060405180910390f35b60008181548110151561018657fe5b906000526020600020016000915054906101000a900473ffffffffffffffffffffffffffffffffffffffff1681565b6000806000806101c361035b565b604051809103906000f0801580156101df573d6000803e3d6000fd5b50925082856101ec61036b565b808373ffffffffffffffffffffffffffffffffffffffff1673ffffffffffffffffffffffffffffffffffffffff1681526020018273ffffffffffffffffffffffffffffffffffffffff1673ffffffffffffffffffffffffffffffffffffffff16815260200192505050604051809103906000f080158015610271573d6000803e3d6000fd5b50915061027c61037b565b604051809103906000f080158015610298573d6000803e3d6000fd5b5090508173ffffffffffffffffffffffffffffffffffffffff167fcf78cf0d6f3d8371e1075c69c492ab4ec5d8cf23a1a239b6a51a1d00be7ca31260405160405180910390a260008290806001815401808255809150509060018203906000526020600020016000909192909190916101000a81548173ffffffffffffffffffffffffffffffffffffffff021916908373ffffffffffffffffffffffffffffffffffffffff16021790555050819350505050919050565b60008080549050905090565b6040516108998061038c83390190565b60405161073280610c2583390190565b60405161235080611357833901905600608060405234801561001057600080fd5b50610879806100206000396000f30060806040526004361061008e576000357c0100000000000000000000000000000000000000000000000000000000900463ffffffff16806321f8a721146100935780636e899550146101045780637ae1cfca1461017b578063986e791a146101c4578063abfdcced1461026e578063bd02d0f5146102ab578063ca446dd9146102f0578063e2a4853a14610341575b600080fd5b34801561009f57600080fd5b506100c2600480360381019080803560001916906020019092919050505061037c565b604051808273ffffffffffffffffffffffffffffffffffffffff1673ffffffffffffffffffffffffffffffffffffffff16815260200191505060405180910390f35b34801561011057600080fd5b506101796004803603810190808035600019169060200190929190803590602001908201803590602001908080601f01602080910402602001604051908101604052809392919081815260200183838082843782019150505050505091929192905050506103fe565b005b34801561018757600080fd5b506101aa600480360381019080803560001916906020019092919050505061046f565b604051808215151515815260200191505060405180910390f35b3480156101d057600080fd5b506101f360048036038101908080356000191690602001909291905050506104de565b6040518080602001828103825283818151815260200191508051906020019080838360005b83811015610233578082015181840152602081019050610218565b50505050905090810190601f1680156102605780820380516001836020036101000a031916815260200191505b509250505060405180910390f35b34801561027a57600080fd5b506102a960048036038101908080356000191690602001909291908035151590602001909291905050506105d8565b005b3480156102b757600080fd5b506102da600480360381019080803560001916906020019092919050505061064c565b6040518082815260200191505060405180910390f35b3480156102fc57600080fd5b5061033f6004803603810190808035600019169060200190929190803573ffffffffffffffffffffffffffffffffffffffff1690602001909291905050506106ad565b005b34801561034d57600080fd5b5061037a600480360381019080803560001916906020019092919080359060200190929190505050610748565b005b6000600160003373ffffffffffffffffffffffffffffffffffffffff1673ffffffffffffffffffffffffffffffffffffffff1681526020019081526020016000206000836000191660001916815260200190815260200160002060009054906101000a900473ffffffffffffffffffffffffffffffffffffffff169050919050565b80600360003373ffffffffffffffffffffffffffffffffffffffff1673ffffffffffffffffffffffffffffffffffffffff16815260200190815260200160002060008460001916600019168152602001908152602001600020908051906020019061046a9291906107a8565b505050565b6000600260003373ffffffffffffffffffffffffffffffffffffffff1673ffffffffffffffffffffffffffffffffffffffff1681526020019081526020016000206000836000191660001916815260200190815260200160002060009054906101000a900460ff169050919050565b6060600360003373ffffffffffffffffffffffffffffffffffffffff1673ffffffffffffffffffffffffffffffffffffffff168152602001908152602001600020600083600019166000191681526020019081526020016000208054600181600116156101000203166002900480601f0160208091040260200160405190810160405280929190818152602001828054600181600116156101000203166002900480156105cc5780601f106105a1576101008083540402835291602001916105cc565b820191906000526020600020905b8154815290600101906020018083116105af57829003601f168201915b50505050509050919050565b80600260003373ffffffffffffffffffffffffffffffffffffffff1673ffffffffffffffffffffffffffffffffffffffff1681526020019081526020016000206000846000191660001916815260200190815260200160002060006101000a81548160ff0219169083151502179055505050565b60008060003373ffffffffffffffffffffffffffffffffffffffff1673ffffffffffffffffffffffffffffffffffffffff16815260200190815260200160002060008360001916600019168152602001908152602001600020549050919050565b80600160003373ffffffffffffffffffffffffffffffffffffffff1673ffffffffffffffffffffffffffffffffffffffff1681526020019081526020016000206000846000191660001916815260200190815260200160002060006101000a81548173ffffffffffffffffffffffffffffffffffffffff021916908373ffffffffffffffffffffffffffffffffffffffff1602179055505050565b806000803373ffffffffffffffffffffffffffffffffffffffff1673ffffffffffffffffffffffffffffffffffffffff16815260200190815260200160002060008460001916600019168152602001908152602001600020819055505050565b828054600181600116156101000203166002900490600052602060002090601f016020900481019282601f106107e957805160ff1916838001178555610817565b82800160010185558215610817579182015b828111156108165782518255916020019190600101906107fb565b5b5090506108249190610828565b5090565b61084a91905b8082111561084657600081600090555060010161082e565b5090565b905600a165627a7a72305820d0896342438f11eba14200c2603a218608d59310637627b58baf55ef044a3fed0029608060405234801561001057600080fd5b5060405160408061073283398101806040528101908080519060200190929190805190602001909291905050508080600260006101000a81548173ffffffffffffffffffffffffffffffffffffffff021916908373ffffffffffffffffffffffffffffffffffffffff16021790555050816000806101000a81548173ffffffffffffffffffffffffffffffffffffffff021916908373ffffffffffffffffffffffffffffffffffffffff1602179055505050610661806100d16000396000f30060806040526004361061006d576000357c0100000000000000000000000000000000000000000000000000000000900463ffffffff1680633659cfe6146101135780634555d5c91461015657806359679b0f146101815780635c60da1b146101d8578063f2fde38b1461022f575b60006060610079610272565b9150600073ffffffffffffffffffffffffffffffffffffffff168273ffffffffffffffffffffffffffffffffffffffff16141515156100b757600080fd5b6000368080601f0160208091040260200160405190810160405280939291908181526020018383808284378201915050505050509050600080825160208401855af43d604051816000823e826000811461010f578282f35b8282fd5b34801561011f57600080fd5b50610154600480360381019080803573ffffffffffffffffffffffffffffffffffffffff16906020019092919050505061029c565b005b34801561016257600080fd5b5061016b610445565b6040518082815260200191505060405180910390f35b34801561018d57600080fd5b5061019661044e565b604051808273ffffffffffffffffffffffffffffffffffffffff1673ffffffffffffffffffffffffffffffffffffffff16815260200191505060405180910390f35b3480156101e457600080fd5b506101ed610272565b604051808273ffffffffffffffffffffffffffffffffffffffff1673ffffffffffffffffffffffffffffffffffffffff16815260200191505060405180910390f35b34801561023b57600080fd5b50610270600480360381019080803573ffffffffffffffffffffffffffffffffffffffff169060200190929190505050610474565b005b6000600160009054906101000a900473ffffffffffffffffffffffffffffffffffffffff16905090565b600260009054906101000a900473ffffffffffffffffffffffffffffffffffffffff1673ffffffffffffffffffffffffffffffffffffffff163373ffffffffffffffffffffffffffffffffffffffff16141515610361576040517f08c379a00000000000000000000000000000000000000000000000000000000081526004018080602001828103825260148152602001807f41646472657373206973206e6f74206f776e657200000000000000000000000081525060200191505060405180910390fd5b8073ffffffffffffffffffffffffffffffffffffffff16600160009054906101000a900473ffffffffffffffffffffffffffffffffffffffff1673ffffffffffffffffffffffffffffffffffffffff16141515156103be57600080fd5b80600160006101000a81548173ffffffffffffffffffffffffffffffffffffffff021916908373ffffffffffffffffffffffffffffffffffffffff1602179055508073ffffffffffffffffffffffffffffffffffffffff167fbc7cd75a20ee27fd9adebab32041f755214dbc6bffa90cc0225b39da2e5c2d3b60405160405180910390a250565b60006001905090565b600160009054906101000a900473ffffffffffffffffffffffffffffffffffffffff1681565b600260009054906101000a900473ffffffffffffffffffffffffffffffffffffffff1673ffffffffffffffffffffffffffffffffffffffff163373ffffffffffffffffffffffffffffffffffffffff16141515610539576040517f08c379a00000000000000000000000000000000000000000000000000000000081526004018080602001828103825260148152602001807f41646472657373206973206e6f74206f776e657200000000000000000000000081525060200191505060405180910390fd5b600073ffffffffffffffffffffffffffffffffffffffff168173ffffffffffffffffffffffffffffffffffffffff161415151561057557600080fd5b8073ffffffffffffffffffffffffffffffffffffffff16600260009054906101000a900473ffffffffffffffffffffffffffffffffffffffff1673ffffffffffffffffffffffffffffffffffffffff167f8be0079c531659141344cd1fd0a4f28419497f9722a3daafe3b4186f6b6457e060405160405180910390a380600260006101000a81548173ffffffffffffffffffffffffffffffffffffffff021916908373ffffffffffffffffffffffffffffffffffffffff160217905550505600a165627a7a7230582074f992ace9f4236a6970519303ee014deccce861639380b7eaa13a9ff12d38040029608060405234801561001057600080fd5b50612330806100206000396000f300608060405260043610610083576000357c0100000000000000000000000000000000000000000000000000000000900463ffffffff1680631eb489691461008857806334fcf437146100e35780633784f0001461012857806382d95df51461016d578063c47f0027146101b2578063cc30c03114610233578063e83efbbe1461028e575b600080fd5b34801561009457600080fd5b506100c9600480360381019080803573ffffffffffffffffffffffffffffffffffffffff1690602001909291905050506102e9565b604051808215151515815260200191505060405180910390f35b3480156100ef57600080fd5b5061010e600480360381019080803590602001909291905050506106b4565b604051808215151515815260200191505060405180910390f35b34801561013457600080fd5b5061015360048036038101908080359060200190929190505050610922565b604051808215151515815260200191505060405180910390f35b34801561017957600080fd5b5061019860048036038101908080359060200190929190505050610c8d565b604051808215151515815260200191505060405180910390f35b3480156101be57600080fd5b50610219600480360381019080803590602001908201803590602001908080601f0160208091040260200160405190810160405280939291908181526020018383808284378201915050505050509192919290505050610ff8565b604051808215151515815260200191505060405180910390f35b34801561023f57600080fd5b50610274600480360381019080803573ffffffffffffffffffffffffffffffffffffffff169060200190929190505050611331565b604051808215151515815260200191505060405180910390f35b34801561029a57600080fd5b506102cf600480360381019080803573ffffffffffffffffffffffffffffffffffffffff169060200190929190505050611536565b604051808215151515815260200191505060405180910390f35b60008015156000809054906101000a900473ffffffffffffffffffffffffffffffffffffffff1673ffffffffffffffffffffffffffffffffffffffff16637ae1cfca6040518163ffffffff167c010000000000000000000000000000000000000000000000000000000002815260040180807f69734163746976650000000000000000000000000000000000000000000000008152506020019050602060405180830381600087803b15801561039e57600080fd5b505af11580156103b2573d6000803e3d6000fd5b505050506040513d60208110156103c857600080fd5b810190808051906020019092919050505015151415156103e757600080fd5b600015156000809054906101000a900473ffffffffffffffffffffffffffffffffffffffff1673ffffffffffffffffffffffffffffffffffffffff16637ae1cfca6040518163ffffffff167c010000000000000000000000000000000000000000000000000000000002815260040180807f69734578706972656400000000000000000000000000000000000000000000008152506020019050602060405180830381600087803b15801561049b57600080fd5b505af11580156104af573d6000803e3d6000fd5b505050506040513d60208110156104c557600080fd5b810190808051906020019092919050505015151415156104e457600080fd5b600073ffffffffffffffffffffffffffffffffffffffff168273ffffffffffffffffffffffffffffffffffffffff16141515156105af576040517f08c379a00000000000000000000000000000000000000000000000000000000081526004018080602001828103825260308152602001807f50726f706f73657220416464726573732069732061207a65726f20616464726581526020017f73732c206e6f7420616c6c6f7765642e0000000000000000000000000000000081525060400191505060405180910390fd5b6000809054906101000a900473ffffffffffffffffffffffffffffffffffffffff1673ffffffffffffffffffffffffffffffffffffffff1663ca446dd9836040518263ffffffff167c010000000000000000000000000000000000000000000000000000000002815260040180807f70726f706f7365720000000000000000000000000000000000000000000000008152506020018273ffffffffffffffffffffffffffffffffffffffff1673ffffffffffffffffffffffffffffffffffffffff168152602001915050600060405180830381600087803b15801561069357600080fd5b505af11580156106a7573d6000803e3d6000fd5b5050505060019050919050565b60008015156000809054906101000a900473ffffffffffffffffffffffffffffffffffffffff1673ffffffffffffffffffffffffffffffffffffffff16637ae1cfca6040518163ffffffff167c010000000000000000000000000000000000000000000000000000000002815260040180807f69734578706972656400000000000000000000000000000000000000000000008152506020019050602060405180830381600087803b15801561076957600080fd5b505af115801561077d573d6000803e3d6000fd5b505050506040513d602081101561079357600080fd5b810190808051906020019092919050505015151415156107b257600080fd5b6000809054906101000a900473ffffffffffffffffffffffffffffffffffffffff1673ffffffffffffffffffffffffffffffffffffffff1663e2a4853a836040518263ffffffff167c010000000000000000000000000000000000000000000000000000000002815260040180807f7261746500000000000000000000000000000000000000000000000000000000815250602001828152602001915050600060405180830381600087803b15801561086a57600080fd5b505af115801561087e573d6000803e3d6000fd5b5050505061088a611add565b6040518082805190602001908083835b6020831015156108bf578051825260208201915060208101905060208303925061089a565b6001836020036101000a0380198251168184511680821785525050505050509050019150506040518091039020827f8b06eb827072b5cd0c9c56665ba51983920466c7a6e50b6294f6c39133939dae60405160405180910390a360019050919050565b60008015156000809054906101000a900473ffffffffffffffffffffffffffffffffffffffff1673ffffffffffffffffffffffffffffffffffffffff16637ae1cfca6040518163ffffffff167c010000000000000000000000000000000000000000000000000000000002815260040180807f69734163746976650000000000000000000000000000000000000000000000008152506020019050602060405180830381600087803b1580156109d757600080fd5b505af11580156109eb573d6000803e3d6000fd5b505050506040513d6020811015610a0157600080fd5b81019080805190602001909291905050501515141515610a2057600080fd5b600015156000809054906101000a900473ffffffffffffffffffffffffffffffffffffffff1673ffffffffffffffffffffffffffffffffffffffff16637ae1cfca6040518163ffffffff167c010000000000000000000000000000000000000000000000000000000002815260040180807f69734578706972656400000000000000000000000000000000000000000000008152506020019050602060405180830381600087803b158015610ad457600080fd5b505af1158015610ae8573d6000803e3d6000fd5b505050506040513d6020811015610afe57600080fd5b81019080805190602001909291905050501515141515610b1d57600080fd5b6000809054906101000a900473ffffffffffffffffffffffffffffffffffffffff1673ffffffffffffffffffffffffffffffffffffffff1663e2a4853a836040518263ffffffff167c010000000000000000000000000000000000000000000000000000000002815260040180807f656e644461746500000000000000000000000000000000000000000000000000815250602001828152602001915050600060405180830381600087803b158015610bd557600080fd5b505af1158015610be9573d6000803e3d6000fd5b50505050610bf5611add565b6040518082805190602001908083835b602083101515610c2a5780518252602082019150602081019050602083039250610c05565b6001836020036101000a0380198251168184511680821785525050505050509050019150506040518091039020827fdd16ac66b295a966a1f971d4ebeaff925eb7901505adcd0b9d34b8b452d3bc5f60405160405180910390a360019050919050565b60008015156000809054906101000a900473ffffffffffffffffffffffffffffffffffffffff1673ffffffffffffffffffffffffffffffffffffffff16637ae1cfca6040518163ffffffff167c010000000000000000000000000000000000000000000000000000000002815260040180807f69734163746976650000000000000000000000000000000000000000000000008152506020019050602060405180830381600087803b158015610d4257600080fd5b505af1158015610d56573d6000803e3d6000fd5b505050506040513d6020811015610d6c57600080fd5b81019080805190602001909291905050501515141515610d8b57600080fd5b600015156000809054906101000a900473ffffffffffffffffffffffffffffffffffffffff1673ffffffffffffffffffffffffffffffffffffffff16637ae1cfca6040518163ffffffff167c010000000000000000000000000000000000000000000000000000000002815260040180807f69734578706972656400000000000000000000000000000000000000000000008152506020019050602060405180830381600087803b158015610e3f57600080fd5b505af1158015610e53573d6000803e3d6000fd5b505050506040513d6020811015610e6957600080fd5b81019080805190602001909291905050501515141515610e8857600080fd5b6000809054906101000a900473ffffffffffffffffffffffffffffffffffffffff1673ffffffffffffffffffffffffffffffffffffffff1663e2a4853a836040518263ffffffff167c010000000000000000000000000000000000000000000000000000000002815260040180807f7374617274446174650000000000000000000000000000000000000000000000815250602001828152602001915050600060405180830381600087803b158015610f4057600080fd5b505af1158015610f54573d6000803e3d6000fd5b50505050610f60611add565b6040518082805190602001908083835b602083101515610f955780518252602082019150602081019050602083039250610f70565b6001836020036101000a0380198251168184511680821785525050505050509050019150506040518091039020827f83547bdbbbbb5ab9d2ecf0b8a4c16cb34b4a3547cea392ff6723c0ae1a005e5160405160405180910390a360019050919050565b60008015156000809054906101000a900473ffffffffffffffffffffffffffffffffffffffff1673ffffffffffffffffffffffffffffffffffffffff16637ae1cfca6040518163ffffffff167c010000000000000000000000000000000000000000000000000000000002815260040180807f69734163746976650000000000000000000000000000000000000000000000008152506020019050602060405180830381600087803b1580156110ad57600080fd5b505af11580156110c1573d6000803e3d6000fd5b505050506040513d60208110156110d757600080fd5b810190808051906020019092919050505015151415156110f657600080fd5b600015156000809054906101000a900473ffffffffffffffffffffffffffffffffffffffff1673ffffffffffffffffffffffffffffffffffffffff16637ae1cfca6040518163ffffffff167c010000000000000000000000000000000000000000000000000000000002815260040180807f69734578706972656400000000000000000000000000000000000000000000008152506020019050602060405180830381600087803b1580156111aa57600080fd5b505af11580156111be573d6000803e3d6000fd5b505050506040513d60208110156111d457600080fd5b810190808051906020019092919050505015151415156111f357600080fd5b6000809054906101000a900473ffffffffffffffffffffffffffffffffffffffff1673ffffffffffffffffffffffffffffffffffffffff16636e899550836040518263ffffffff167c010000000000000000000000000000000000000000000000000000000002815260040180807f636f6e74726163744e616d65000000000000000000000000000000000000000081525060200180602001828103825283818151815260200191508051906020019080838360005b838110156112c45780820151818401526020810190506112a9565b50505050905090810190601f1680156112f15780820380516001836020036101000a031916815260200191505b5092505050600060405180830381600087803b15801561131057600080fd5b505af1158015611324573d6000803e3d6000fd5b5050505060019050919050565b6000600115156000809054906101000a900473ffffffffffffffffffffffffffffffffffffffff1673ffffffffffffffffffffffffffffffffffffffff16637ae1cfca6040518163ffffffff167c010000000000000000000000000000000000000000000000000000000002815260040180807f69734163746976650000000000000000000000000000000000000000000000008152506020019050602060405180830381600087803b1580156113e757600080fd5b505af11580156113fb573d6000803e3d6000fd5b505050506040513d602081101561141157600080fd5b8101908080519060200190929190505050151514151561143057600080fd5b600015156000809054906101000a900473ffffffffffffffffffffffffffffffffffffffff1673ffffffffffffffffffffffffffffffffffffffff16637ae1cfca6040518163ffffffff167c010000000000000000000000000000000000000000000000000000000002815260040180807f69734578706972656400000000000000000000000000000000000000000000008152506020019050602060405180830381600087803b1580156114e457600080fd5b505af11580156114f8573d6000803e3d6000fd5b505050506040513d602081101561150e57600080fd5b8101908080519060200190929190505050151514151561152d57600080fd5b60019050919050565b60008015156000809054906101000a900473ffffffffffffffffffffffffffffffffffffffff1673ffffffffffffffffffffffffffffffffffffffff16637ae1cfca6040518163ffffffff167c010000000000000000000000000000000000000000000000000000000002815260040180807f69734163746976650000000000000000000000000000000000000000000000008152506020019050602060405180830381600087803b1580156115eb57600080fd5b505af11580156115ff573d6000803e3d6000fd5b505050506040513d602081101561161557600080fd5b8101908080519060200190929190505050151514151561163457600080fd5b600015156000809054906101000a900473ffffffffffffffffffffffffffffffffffffffff1673ffffffffffffffffffffffffffffffffffffffff16637ae1cfca6040518163ffffffff167c010000000000000000000000000000000000000000000000000000000002815260040180807f69734578706972656400000000000000000000000000000000000000000000008152506020019050602060405180830381600087803b1580156116e857600080fd5b505af11580156116fc573d6000803e3d6000fd5b505050506040513d602081101561171257600080fd5b8101908080519060200190929190505050151514151561173157600080fd5b600073ffffffffffffffffffffffffffffffffffffffff166000809054906101000a900473ffffffffffffffffffffffffffffffffffffffff1673ffffffffffffffffffffffffffffffffffffffff166321f8a7216040518163ffffffff167c010000000000000000000000000000000000000000000000000000000002815260040180807f70726f706f7365720000000000000000000000000000000000000000000000008152506020019050602060405180830381600087803b1580156117f957600080fd5b505af115801561180d573d6000803e3d6000fd5b505050506040513d602081101561182357600080fd5b810190808051906020019092919050505073ffffffffffffffffffffffffffffffffffffffff161415151561185757600080fd5b600073ffffffffffffffffffffffffffffffffffffffff168273ffffffffffffffffffffffffffffffffffffffff1614151515611922576040517f08c379a00000000000000000000000000000000000000000000000000000000081526004018080602001828103825260308152602001807f50726f706f73657220416464726573732069732061207a65726f20616464726581526020017f73732c206e6f7420616c6c6f7765642e0000000000000000000000000000000081525060400191505060405180910390fd5b6000809054906101000a900473ffffffffffffffffffffffffffffffffffffffff1673ffffffffffffffffffffffffffffffffffffffff1663ca446dd9836040518263ffffffff167c010000000000000000000000000000000000000000000000000000000002815260040180807f6163636570746f720000000000000000000000000000000000000000000000008152506020018273ffffffffffffffffffffffffffffffffffffffff1673ffffffffffffffffffffffffffffffffffffffff168152602001915050600060405180830381600087803b158015611a0657600080fd5b505af1158015611a1a573d6000803e3d6000fd5b50505050611a26611add565b6040518082805190602001908083835b602083101515611a5b5780518252602082019150602081019050602083039250611a36565b6001836020036101000a03801982511681845116808217855250505050505090500191505060405180910390208273ffffffffffffffffffffffffffffffffffffffff167f0608777edff18e5dfc83adca3663fe513c3a15dbb52560f9ef85a89d5f03a16260405160405180910390a3611ad3611c25565b5060019050919050565b60606000809054906101000a900473ffffffffffffffffffffffffffffffffffffffff1673ffffffffffffffffffffffffffffffffffffffff1663986e791a6040518163ffffffff167c010000000000000000000000000000000000000000000000000000000002815260040180807f636f6e74726163744e616d6500000000000000000000000000000000000000008152506020019050600060405180830381600087803b158015611b8f57600080fd5b505af1158015611ba3573d6000803e3d6000fd5b505050506040513d6000823e3d601f19601f820116820180604052506020811015611bcd57600080fd5b810190808051640100000000811115611be557600080fd5b82810190506020810184811115611bfb57600080fd5b8151856001820283011164010000000082111715611c1857600080fd5b5050929190505050905090565b60008015156000809054906101000a900473ffffffffffffffffffffffffffffffffffffffff1673ffffffffffffffffffffffffffffffffffffffff16637ae1cfca6040518163ffffffff167c010000000000000000000000000000000000000000000000000000000002815260040180807f69734163746976650000000000000000000000000000000000000000000000008152506020019050602060405180830381600087803b158015611cda57600080fd5b505af1158015611cee573d6000803e3d6000fd5b505050506040513d6020811015611d0457600080fd5b81019080805190602001909291905050501515141515611d2357600080fd5b600015156000809054906101000a900473ffffffffffffffffffffffffffffffffffffffff1673ffffffffffffffffffffffffffffffffffffffff16637ae1cfca6040518163ffffffff167c010000000000000000000000000000000000000000000000000000000002815260040180807f69734578706972656400000000000000000000000000000000000000000000008152506020019050602060405180830381600087803b158015611dd757600080fd5b505af1158015611deb573d6000803e3d6000fd5b505050506040513d6020811015611e0157600080fd5b81019080805190602001909291905050501515141515611e2057600080fd5b600073ffffffffffffffffffffffffffffffffffffffff166000809054906101000a900473ffffffffffffffffffffffffffffffffffffffff1673ffffffffffffffffffffffffffffffffffffffff166321f8a7216040518163ffffffff167c010000000000000000000000000000000000000000000000000000000002815260040180807f70726f706f7365720000000000000000000000000000000000000000000000008152506020019050602060405180830381600087803b158015611ee857600080fd5b505af1158015611efc573d6000803e3d6000fd5b505050506040513d6020811015611f1257600080fd5b810190808051906020019092919050505073ffffffffffffffffffffffffffffffffffffffff1614151515611f4657600080fd5b600073ffffffffffffffffffffffffffffffffffffffff166000809054906101000a900473ffffffffffffffffffffffffffffffffffffffff1673ffffffffffffffffffffffffffffffffffffffff166321f8a7216040518163ffffffff167c010000000000000000000000000000000000000000000000000000000002815260040180807f6163636570746f720000000000000000000000000000000000000000000000008152506020019050602060405180830381600087803b15801561200e57600080fd5b505af1158015612022573d6000803e3d6000fd5b505050506040513d602081101561203857600080fd5b810190808051906020019092919050505073ffffffffffffffffffffffffffffffffffffffff161415151561206c57600080fd5b600073ffffffffffffffffffffffffffffffffffffffff166000809054906101000a900473ffffffffffffffffffffffffffffffffffffffff1673ffffffffffffffffffffffffffffffffffffffff166321f8a7216040518163ffffffff167c010000000000000000000000000000000000000000000000000000000002815260040180807f776f726b657200000000000000000000000000000000000000000000000000008152506020019050602060405180830381600087803b15801561213457600080fd5b505af1158015612148573d6000803e3d6000fd5b505050506040513d602081101561215e57600080fd5b810190808051906020019092919050505073ffffffffffffffffffffffffffffffffffffffff161415151561219257600080fd5b6000809054906101000a900473ffffffffffffffffffffffffffffffffffffffff1673ffffffffffffffffffffffffffffffffffffffff1663abfdcced60016040518263ffffffff167c010000000000000000000000000000000000000000000000000000000002815260040180807f697341637469766500000000000000000000000000000000000000000000000081525060200182151515158152602001915050600060405180830381600087803b15801561224f57600080fd5b505af1158015612263573d6000803e3d6000fd5b5050505061226f611add565b6040518082805190602001908083835b6020831015156122a4578051825260208201915060208101905060208303925061227f565b6001836020036101000a03801982511681845116808217855250505050505090500191505060405180910390207fef877411dbfc3259981a88062c178617f17b976e22d8131bf7773ed2297a044860405160405180910390a260019050905600a165627a7a7230582043f7876e486ee9ed6351a129e92a32a4420be11ac57c160ca5cd283921bc442c0029a165627a7a723058203371b1c78800b18b22d8efb23a6f423b5e44e5eac3cd7b3d6e3b35b39ec206180029",
  "source": "pragma solidity ^0.4.23;\n\n\nimport \"../logic/sow.v1.sol\";\nimport \"../proxy/sow.proxy.sol\";\nimport \"./sow.factory.data.sol\";\nimport \"../storage/sow.storage.sol\";\n\ncontract SOWFactory is SOWFactoryData {\n    event ContractCreated(address indexed created);\n    function createSOW(address _owner)\n        public\n        returns (address)\n    {\n        SOWStorage sowStorage = new SOWStorage();       \n        SOWProxy sowProxy = new SOWProxy(sowStorage, _owner);   \n        SOWContractV1 instance = new SOWContractV1();   \n        //sowProxy.upgradeTo(instance); \n        emit ContractCreated(sowProxy);  \n        _sowContracts.push(sowProxy);\n        return sowProxy; \n    }\n\n    function getContractCount() \n    public\n    constant\n    returns(uint contractCount)\n  {\n    return _sowContracts.length;\n  }\n}",
  "sourcePath": "/Users/dennismacpro/Ascension/SOW-Demo/sow-contracts/contracts/factory/sow.factory.sol",
  "compiler": {
    "name": "solc",
    "version": "0.4.23+commit.124ca40d.Emscripten.clang"
  },
  "schemaVersion": "3.0.2",
  "updatedAt": "2019-04-01T01:39:13.853Z",
  "devdoc": {
    "methods": {}
  },
  "userdoc": {
    "methods": {}
  }
}