{
  "contractName": "SOWFactory",
  "abi": [
    {
      "constant": true,
      "inputs": [
        {
          "name": "",
          "type": "uint256"
        }
      ],
      "name": "_sowContracts",
      "outputs": [
        {
          "name": "",
          "type": "address"
        }
      ],
      "payable": false,
      "stateMutability": "view",
      "type": "function"
    },
    {
      "anonymous": false,
      "inputs": [
        {
          "indexed": true,
          "name": "storageAddress",
          "type": "address"
        },
        {
          "indexed": true,
          "name": "_owner",
          "type": "address"
        }
      ],
      "name": "SOWStorageCreated",
      "type": "event"
    },
    {
      "anonymous": false,
      "inputs": [
        {
          "indexed": true,
          "name": "proxyAddress",
          "type": "address"
        },
        {
          "indexed": true,
          "name": "_owner",
          "type": "address"
        }
      ],
      "name": "SOWProxyCreated",
      "type": "event"
    },
    {
      "anonymous": false,
      "inputs": [
        {
          "indexed": true,
          "name": "logicAddress",
          "type": "address"
        },
        {
          "indexed": true,
          "name": "_owner",
          "type": "address"
        }
      ],
      "name": "SOWLogicCreated",
      "type": "event"
    },
    {
      "anonymous": false,
      "inputs": [
        {
          "indexed": true,
          "name": "storageAddress",
          "type": "address"
        },
        {
          "indexed": true,
          "name": "logicAddress",
          "type": "address"
        },
        {
          "indexed": true,
          "name": "proxyAddress",
          "type": "address"
        },
        {
          "indexed": false,
          "name": "_owner",
          "type": "address"
        },
        {
          "indexed": false,
          "name": "_sender",
          "type": "address"
        }
      ],
      "name": "SOWSuccessfullyCreated",
      "type": "event"
    },
    {
      "constant": false,
      "inputs": [
        {
          "name": "_owner",
          "type": "address"
        }
      ],
      "name": "createSOW",
      "outputs": [
        {
          "name": "",
          "type": "address"
        }
      ],
      "payable": false,
      "stateMutability": "nonpayable",
      "type": "function"
    },
    {
      "constant": true,
      "inputs": [],
      "name": "getContractCount",
      "outputs": [
        {
          "name": "contractCount",
          "type": "uint256"
        }
      ],
      "payable": false,
      "stateMutability": "view",
      "type": "function"
    }
  ],
  "bytecode": "0x608060405234801561001057600080fd5b50613802806100206000396000f300608060405260043610610057576000357c0100000000000000000000000000000000000000000000000000000000900463ffffffff1680633446f5e21461005c5780635ebe7716146100c95780639399869d1461014c575b600080fd5b34801561006857600080fd5b5061008760048036038101908080359060200190929190505050610177565b604051808273ffffffffffffffffffffffffffffffffffffffff1673ffffffffffffffffffffffffffffffffffffffff16815260200191505060405180910390f35b3480156100d557600080fd5b5061010a600480360381019080803573ffffffffffffffffffffffffffffffffffffffff1690602001909291905050506101b5565b604051808273ffffffffffffffffffffffffffffffffffffffff1673ffffffffffffffffffffffffffffffffffffffff16815260200191505060405180910390f35b34801561015857600080fd5b50610161610474565b6040518082815260200191505060405180910390f35b60018181548110151561018657fe5b906000526020600020016000915054906101000a900473ffffffffffffffffffffffffffffffffffffffff1681565b6000806000806000806101c6610481565b604051809103906000f0801580156101e2573d6000803e3d6000fd5b50945084935083876101f2610491565b808373ffffffffffffffffffffffffffffffffffffffff1673ffffffffffffffffffffffffffffffffffffffff1681526020018273ffffffffffffffffffffffffffffffffffffffff1673ffffffffffffffffffffffffffffffffffffffff16815260200192505050604051809103906000f080158015610277573d6000803e3d6000fd5b5092508291506102856104a1565b604051809103906000f0801580156102a1573d6000803e3d6000fd5b5090508173ffffffffffffffffffffffffffffffffffffffff16630f4029f982896040518363ffffffff167c0100000000000000000000000000000000000000000000000000000000028152600401808373ffffffffffffffffffffffffffffffffffffffff1673ffffffffffffffffffffffffffffffffffffffff1681526020018273ffffffffffffffffffffffffffffffffffffffff1673ffffffffffffffffffffffffffffffffffffffff16815260200192505050600060405180830381600087803b15801561037357600080fd5b505af1158015610387573d6000803e3d6000fd5b505050508273ffffffffffffffffffffffffffffffffffffffff168173ffffffffffffffffffffffffffffffffffffffff168673ffffffffffffffffffffffffffffffffffffffff167fc12049ca3dd76832829e4ac9c59db1d6732c1ce60a8225873f7ff3ee3dfc90248a33604051808373ffffffffffffffffffffffffffffffffffffffff1673ffffffffffffffffffffffffffffffffffffffff1681526020018273ffffffffffffffffffffffffffffffffffffffff1673ffffffffffffffffffffffffffffffffffffffff1681526020019250505060405180910390a48295505050505050919050565b6000600180549050905090565b604051610899806104b283390190565b60405161094c80610d4b83390190565b60405161214080611697833901905600608060405234801561001057600080fd5b50610879806100206000396000f30060806040526004361061008e576000357c0100000000000000000000000000000000000000000000000000000000900463ffffffff16806321f8a721146100935780636e899550146101045780637ae1cfca1461017b578063986e791a146101c4578063abfdcced1461026e578063bd02d0f5146102ab578063ca446dd9146102f0578063e2a4853a14610341575b600080fd5b34801561009f57600080fd5b506100c2600480360381019080803560001916906020019092919050505061037c565b604051808273ffffffffffffffffffffffffffffffffffffffff1673ffffffffffffffffffffffffffffffffffffffff16815260200191505060405180910390f35b34801561011057600080fd5b506101796004803603810190808035600019169060200190929190803590602001908201803590602001908080601f01602080910402602001604051908101604052809392919081815260200183838082843782019150505050505091929192905050506103fe565b005b34801561018757600080fd5b506101aa600480360381019080803560001916906020019092919050505061046f565b604051808215151515815260200191505060405180910390f35b3480156101d057600080fd5b506101f360048036038101908080356000191690602001909291905050506104de565b6040518080602001828103825283818151815260200191508051906020019080838360005b83811015610233578082015181840152602081019050610218565b50505050905090810190601f1680156102605780820380516001836020036101000a031916815260200191505b509250505060405180910390f35b34801561027a57600080fd5b506102a960048036038101908080356000191690602001909291908035151590602001909291905050506105d8565b005b3480156102b757600080fd5b506102da600480360381019080803560001916906020019092919050505061064c565b6040518082815260200191505060405180910390f35b3480156102fc57600080fd5b5061033f6004803603810190808035600019169060200190929190803573ffffffffffffffffffffffffffffffffffffffff1690602001909291905050506106ad565b005b34801561034d57600080fd5b5061037a600480360381019080803560001916906020019092919080359060200190929190505050610748565b005b6000600160003373ffffffffffffffffffffffffffffffffffffffff1673ffffffffffffffffffffffffffffffffffffffff1681526020019081526020016000206000836000191660001916815260200190815260200160002060009054906101000a900473ffffffffffffffffffffffffffffffffffffffff169050919050565b80600360003373ffffffffffffffffffffffffffffffffffffffff1673ffffffffffffffffffffffffffffffffffffffff16815260200190815260200160002060008460001916600019168152602001908152602001600020908051906020019061046a9291906107a8565b505050565b6000600260003373ffffffffffffffffffffffffffffffffffffffff1673ffffffffffffffffffffffffffffffffffffffff1681526020019081526020016000206000836000191660001916815260200190815260200160002060009054906101000a900460ff169050919050565b6060600360003373ffffffffffffffffffffffffffffffffffffffff1673ffffffffffffffffffffffffffffffffffffffff168152602001908152602001600020600083600019166000191681526020019081526020016000208054600181600116156101000203166002900480601f0160208091040260200160405190810160405280929190818152602001828054600181600116156101000203166002900480156105cc5780601f106105a1576101008083540402835291602001916105cc565b820191906000526020600020905b8154815290600101906020018083116105af57829003601f168201915b50505050509050919050565b80600260003373ffffffffffffffffffffffffffffffffffffffff1673ffffffffffffffffffffffffffffffffffffffff1681526020019081526020016000206000846000191660001916815260200190815260200160002060006101000a81548160ff0219169083151502179055505050565b60008060003373ffffffffffffffffffffffffffffffffffffffff1673ffffffffffffffffffffffffffffffffffffffff16815260200190815260200160002060008360001916600019168152602001908152602001600020549050919050565b80600160003373ffffffffffffffffffffffffffffffffffffffff1673ffffffffffffffffffffffffffffffffffffffff1681526020019081526020016000206000846000191660001916815260200190815260200160002060006101000a81548173ffffffffffffffffffffffffffffffffffffffff021916908373ffffffffffffffffffffffffffffffffffffffff1602179055505050565b806000803373ffffffffffffffffffffffffffffffffffffffff1673ffffffffffffffffffffffffffffffffffffffff16815260200190815260200160002060008460001916600019168152602001908152602001600020819055505050565b828054600181600116156101000203166002900490600052602060002090601f016020900481019282601f106107e957805160ff1916838001178555610817565b82800160010185558215610817579182015b828111156108165782518255916020019190600101906107fb565b5b5090506108249190610828565b5090565b61084a91905b8082111561084657600081600090555060010161082e565b5090565b905600a165627a7a72305820d0896342438f11eba14200c2603a218608d59310637627b58baf55ef044a3fed0029608060405234801561001057600080fd5b5060405160408061094c83398101806040528101908080519060200190929190805190602001909291905050508080600260006101000a81548173ffffffffffffffffffffffffffffffffffffffff021916908373ffffffffffffffffffffffffffffffffffffffff16021790555050816000806101000a81548173ffffffffffffffffffffffffffffffffffffffff021916908373ffffffffffffffffffffffffffffffffffffffff160217905550505061087b806100d16000396000f300608060405260043610610078576000357c0100000000000000000000000000000000000000000000000000000000900463ffffffff1680630f4029f91461011e5780633659cfe6146101815780634555d5c9146101c457806359679b0f146101ef5780635c60da1b14610246578063f2fde38b1461029d575b600060606100846102e0565b9150600073ffffffffffffffffffffffffffffffffffffffff168273ffffffffffffffffffffffffffffffffffffffff16141515156100c257600080fd5b6000368080601f0160208091040260200160405190810160405280939291908181526020018383808284378201915050505050509050600080825160208401855af43d604051816000823e826000811461011a578282f35b8282fd5b34801561012a57600080fd5b5061017f600480360381019080803573ffffffffffffffffffffffffffffffffffffffff169060200190929190803573ffffffffffffffffffffffffffffffffffffffff16906020019092919050505061030a565b005b34801561018d57600080fd5b506101c2600480360381019080803573ffffffffffffffffffffffffffffffffffffffff1690602001909291905050506104b6565b005b3480156101d057600080fd5b506101d961065f565b6040518082815260200191505060405180910390f35b3480156101fb57600080fd5b50610204610668565b604051808273ffffffffffffffffffffffffffffffffffffffff1673ffffffffffffffffffffffffffffffffffffffff16815260200191505060405180910390f35b34801561025257600080fd5b5061025b6102e0565b604051808273ffffffffffffffffffffffffffffffffffffffff1673ffffffffffffffffffffffffffffffffffffffff16815260200191505060405180910390f35b3480156102a957600080fd5b506102de600480360381019080803573ffffffffffffffffffffffffffffffffffffffff16906020019092919050505061068e565b005b6000600160009054906101000a900473ffffffffffffffffffffffffffffffffffffffff16905090565b80600260009054906101000a900473ffffffffffffffffffffffffffffffffffffffff1673ffffffffffffffffffffffffffffffffffffffff168173ffffffffffffffffffffffffffffffffffffffff161415156103d0576040517f08c379a00000000000000000000000000000000000000000000000000000000081526004018080602001828103825260148152602001807f41646472657373206973206e6f74206f776e657200000000000000000000000081525060200191505060405180910390fd5b8273ffffffffffffffffffffffffffffffffffffffff16600160009054906101000a900473ffffffffffffffffffffffffffffffffffffffff1673ffffffffffffffffffffffffffffffffffffffff161415151561042d57600080fd5b82600160006101000a81548173ffffffffffffffffffffffffffffffffffffffff021916908373ffffffffffffffffffffffffffffffffffffffff1602179055508273ffffffffffffffffffffffffffffffffffffffff167fbc7cd75a20ee27fd9adebab32041f755214dbc6bffa90cc0225b39da2e5c2d3b60405160405180910390a2505050565b600260009054906101000a900473ffffffffffffffffffffffffffffffffffffffff1673ffffffffffffffffffffffffffffffffffffffff163373ffffffffffffffffffffffffffffffffffffffff1614151561057b576040517f08c379a00000000000000000000000000000000000000000000000000000000081526004018080602001828103825260148152602001807f41646472657373206973206e6f74206f776e657200000000000000000000000081525060200191505060405180910390fd5b8073ffffffffffffffffffffffffffffffffffffffff16600160009054906101000a900473ffffffffffffffffffffffffffffffffffffffff1673ffffffffffffffffffffffffffffffffffffffff16141515156105d857600080fd5b80600160006101000a81548173ffffffffffffffffffffffffffffffffffffffff021916908373ffffffffffffffffffffffffffffffffffffffff1602179055508073ffffffffffffffffffffffffffffffffffffffff167fbc7cd75a20ee27fd9adebab32041f755214dbc6bffa90cc0225b39da2e5c2d3b60405160405180910390a250565b60006001905090565b600160009054906101000a900473ffffffffffffffffffffffffffffffffffffffff1681565b600260009054906101000a900473ffffffffffffffffffffffffffffffffffffffff1673ffffffffffffffffffffffffffffffffffffffff163373ffffffffffffffffffffffffffffffffffffffff16141515610753576040517f08c379a00000000000000000000000000000000000000000000000000000000081526004018080602001828103825260148152602001807f41646472657373206973206e6f74206f776e657200000000000000000000000081525060200191505060405180910390fd5b600073ffffffffffffffffffffffffffffffffffffffff168173ffffffffffffffffffffffffffffffffffffffff161415151561078f57600080fd5b8073ffffffffffffffffffffffffffffffffffffffff16600260009054906101000a900473ffffffffffffffffffffffffffffffffffffffff1673ffffffffffffffffffffffffffffffffffffffff167f8be0079c531659141344cd1fd0a4f28419497f9722a3daafe3b4186f6b6457e060405160405180910390a380600260006101000a81548173ffffffffffffffffffffffffffffffffffffffff021916908373ffffffffffffffffffffffffffffffffffffffff160217905550505600a165627a7a72305820e52d3e399780681a3ada37e4d6dde19509b405ebddcfaaf5d6f1cf52539479fe0029608060405234801561001057600080fd5b50612120806100206000396000f3006080604052600436106100a4576000357c0100000000000000000000000000000000000000000000000000000000900463ffffffff1680631eb48969146100a957806334fcf437146101045780633784f00014610149578063396e5fee1461018e578063679aefce146101bd57806367eaeddb146101e857806382d95df51461023f578063c47f002714610284578063cc30c03114610305578063e83efbbe14610360575b600080fd5b3480156100b557600080fd5b506100ea600480360381019080803573ffffffffffffffffffffffffffffffffffffffff1690602001909291905050506103bb565b604051808215151515815260200191505060405180910390f35b34801561011057600080fd5b5061012f60048036038101908080359060200190929190505050610958565b604051808215151515815260200191505060405180910390f35b34801561015557600080fd5b5061017460048036038101908080359060200190929190505050610bc6565b604051808215151515815260200191505060405180910390f35b34801561019a57600080fd5b506101a3610e34565b604051808215151515815260200191505060405180910390f35b3480156101c957600080fd5b506101d2610f26565b6040518082815260200191505060405180910390f35b3480156101f457600080fd5b506101fd611018565b604051808273ffffffffffffffffffffffffffffffffffffffff1673ffffffffffffffffffffffffffffffffffffffff16815260200191505060405180910390f35b34801561024b57600080fd5b5061026a6004803603810190808035906020019092919050505061110a565b604051808215151515815260200191505060405180910390f35b34801561029057600080fd5b506102eb600480360381019080803590602001908201803590602001908080601f0160208091040260200160405190810160405280939291908181526020018383808284378201915050505050509192919290505050611378565b604051808215151515815260200191505060405180910390f35b34801561031157600080fd5b50610346600480360381019080803573ffffffffffffffffffffffffffffffffffffffff169060200190929190505050611740565b604051808215151515815260200191505060405180910390f35b34801561036c57600080fd5b506103a1600480360381019080803573ffffffffffffffffffffffffffffffffffffffff169060200190929190505050611abb565b604051808215151515815260200191505060405180910390f35b60008015156000809054906101000a900473ffffffffffffffffffffffffffffffffffffffff1673ffffffffffffffffffffffffffffffffffffffff16637ae1cfca6040518163ffffffff167c010000000000000000000000000000000000000000000000000000000002815260040180807f69734163746976650000000000000000000000000000000000000000000000008152506020019050602060405180830381600087803b15801561047057600080fd5b505af1158015610484573d6000803e3d6000fd5b505050506040513d602081101561049a57600080fd5b810190808051906020019092919050505015151415156104b957600080fd5b600015156000809054906101000a900473ffffffffffffffffffffffffffffffffffffffff1673ffffffffffffffffffffffffffffffffffffffff16637ae1cfca6040518163ffffffff167c010000000000000000000000000000000000000000000000000000000002815260040180807f69734578706972656400000000000000000000000000000000000000000000008152506020019050602060405180830381600087803b15801561056d57600080fd5b505af1158015610581573d6000803e3d6000fd5b505050506040513d602081101561059757600080fd5b810190808051906020019092919050505015151415156105b657600080fd5b600073ffffffffffffffffffffffffffffffffffffffff166000809054906101000a900473ffffffffffffffffffffffffffffffffffffffff1673ffffffffffffffffffffffffffffffffffffffff166321f8a7216040518163ffffffff167c010000000000000000000000000000000000000000000000000000000002815260040180807f70726f706f7365720000000000000000000000000000000000000000000000008152506020019050602060405180830381600087803b15801561067e57600080fd5b505af1158015610692573d6000803e3d6000fd5b505050506040513d60208110156106a857600080fd5b810190808051906020019092919050505073ffffffffffffffffffffffffffffffffffffffff161415156106db57600080fd5b600073ffffffffffffffffffffffffffffffffffffffff168273ffffffffffffffffffffffffffffffffffffffff16141515156107a6576040517f08c379a00000000000000000000000000000000000000000000000000000000081526004018080602001828103825260308152602001807f50726f706f73657220416464726573732069732061207a65726f20616464726581526020017f73732c206e6f7420616c6c6f7765642e0000000000000000000000000000000081525060400191505060405180910390fd5b6000809054906101000a900473ffffffffffffffffffffffffffffffffffffffff1673ffffffffffffffffffffffffffffffffffffffff1663ca446dd9836040518263ffffffff167c010000000000000000000000000000000000000000000000000000000002815260040180807f70726f706f7365720000000000000000000000000000000000000000000000008152506020018273ffffffffffffffffffffffffffffffffffffffff1673ffffffffffffffffffffffffffffffffffffffff168152602001915050600060405180830381600087803b15801561088a57600080fd5b505af115801561089e573d6000803e3d6000fd5b505050506108aa611fac565b6040518082805190602001908083835b6020831015156108df57805182526020820191506020810190506020830392506108ba565b6001836020036101000a03801982511681845116808217855250505050505090500191505060405180910390208273ffffffffffffffffffffffffffffffffffffffff167ff4bf703030356058116745a02dcaed389271c8cfeb676c5312da6cacb02e1ab060405160405180910390a360019050919050565b60008015156000809054906101000a900473ffffffffffffffffffffffffffffffffffffffff1673ffffffffffffffffffffffffffffffffffffffff16637ae1cfca6040518163ffffffff167c010000000000000000000000000000000000000000000000000000000002815260040180807f69734578706972656400000000000000000000000000000000000000000000008152506020019050602060405180830381600087803b158015610a0d57600080fd5b505af1158015610a21573d6000803e3d6000fd5b505050506040513d6020811015610a3757600080fd5b81019080805190602001909291905050501515141515610a5657600080fd5b6000809054906101000a900473ffffffffffffffffffffffffffffffffffffffff1673ffffffffffffffffffffffffffffffffffffffff1663e2a4853a836040518263ffffffff167c010000000000000000000000000000000000000000000000000000000002815260040180807f7261746500000000000000000000000000000000000000000000000000000000815250602001828152602001915050600060405180830381600087803b158015610b0e57600080fd5b505af1158015610b22573d6000803e3d6000fd5b50505050610b2e611fac565b6040518082805190602001908083835b602083101515610b635780518252602082019150602081019050602083039250610b3e565b6001836020036101000a0380198251168184511680821785525050505050509050019150506040518091039020827f8b06eb827072b5cd0c9c56665ba51983920466c7a6e50b6294f6c39133939dae60405160405180910390a360019050919050565b60008015156000809054906101000a900473ffffffffffffffffffffffffffffffffffffffff1673ffffffffffffffffffffffffffffffffffffffff16637ae1cfca6040518163ffffffff167c010000000000000000000000000000000000000000000000000000000002815260040180807f69734578706972656400000000000000000000000000000000000000000000008152506020019050602060405180830381600087803b158015610c7b57600080fd5b505af1158015610c8f573d6000803e3d6000fd5b505050506040513d6020811015610ca557600080fd5b81019080805190602001909291905050501515141515610cc457600080fd5b6000809054906101000a900473ffffffffffffffffffffffffffffffffffffffff1673ffffffffffffffffffffffffffffffffffffffff1663e2a4853a836040518263ffffffff167c010000000000000000000000000000000000000000000000000000000002815260040180807f656e644461746500000000000000000000000000000000000000000000000000815250602001828152602001915050600060405180830381600087803b158015610d7c57600080fd5b505af1158015610d90573d6000803e3d6000fd5b50505050610d9c611fac565b6040518082805190602001908083835b602083101515610dd15780518252602082019150602081019050602083039250610dac565b6001836020036101000a0380198251168184511680821785525050505050509050019150506040518091039020827fdd16ac66b295a966a1f971d4ebeaff925eb7901505adcd0b9d34b8b452d3bc5f60405160405180910390a360019050919050565b60008060009054906101000a900473ffffffffffffffffffffffffffffffffffffffff1673ffffffffffffffffffffffffffffffffffffffff16637ae1cfca6040518163ffffffff167c010000000000000000000000000000000000000000000000000000000002815260040180807f69734163746976650000000000000000000000000000000000000000000000008152506020019050602060405180830381600087803b158015610ee657600080fd5b505af1158015610efa573d6000803e3d6000fd5b505050506040513d6020811015610f1057600080fd5b8101908080519060200190929190505050905090565b60008060009054906101000a900473ffffffffffffffffffffffffffffffffffffffff1673ffffffffffffffffffffffffffffffffffffffff1663bd02d0f56040518163ffffffff167c010000000000000000000000000000000000000000000000000000000002815260040180807f72617465000000000000000000000000000000000000000000000000000000008152506020019050602060405180830381600087803b158015610fd857600080fd5b505af1158015610fec573d6000803e3d6000fd5b505050506040513d602081101561100257600080fd5b8101908080519060200190929190505050905090565b60008060009054906101000a900473ffffffffffffffffffffffffffffffffffffffff1673ffffffffffffffffffffffffffffffffffffffff166321f8a7216040518163ffffffff167c010000000000000000000000000000000000000000000000000000000002815260040180807f776f726b657200000000000000000000000000000000000000000000000000008152506020019050602060405180830381600087803b1580156110ca57600080fd5b505af11580156110de573d6000803e3d6000fd5b505050506040513d60208110156110f457600080fd5b8101908080519060200190929190505050905090565b60008015156000809054906101000a900473ffffffffffffffffffffffffffffffffffffffff1673ffffffffffffffffffffffffffffffffffffffff16637ae1cfca6040518163ffffffff167c010000000000000000000000000000000000000000000000000000000002815260040180807f69734578706972656400000000000000000000000000000000000000000000008152506020019050602060405180830381600087803b1580156111bf57600080fd5b505af11580156111d3573d6000803e3d6000fd5b505050506040513d60208110156111e957600080fd5b8101908080519060200190929190505050151514151561120857600080fd5b6000809054906101000a900473ffffffffffffffffffffffffffffffffffffffff1673ffffffffffffffffffffffffffffffffffffffff1663e2a4853a836040518263ffffffff167c010000000000000000000000000000000000000000000000000000000002815260040180807f7374617274446174650000000000000000000000000000000000000000000000815250602001828152602001915050600060405180830381600087803b1580156112c057600080fd5b505af11580156112d4573d6000803e3d6000fd5b505050506112e0611fac565b6040518082805190602001908083835b60208310151561131557805182526020820191506020810190506020830392506112f0565b6001836020036101000a0380198251168184511680821785525050505050509050019150506040518091039020827f83547bdbbbbb5ab9d2ecf0b8a4c16cb34b4a3547cea392ff6723c0ae1a005e5160405160405180910390a360019050919050565b60008015156000809054906101000a900473ffffffffffffffffffffffffffffffffffffffff1673ffffffffffffffffffffffffffffffffffffffff16637ae1cfca6040518163ffffffff167c010000000000000000000000000000000000000000000000000000000002815260040180807f69734163746976650000000000000000000000000000000000000000000000008152506020019050602060405180830381600087803b15801561142d57600080fd5b505af1158015611441573d6000803e3d6000fd5b505050506040513d602081101561145757600080fd5b8101908080519060200190929190505050151514151561147657600080fd5b600015156000809054906101000a900473ffffffffffffffffffffffffffffffffffffffff1673ffffffffffffffffffffffffffffffffffffffff16637ae1cfca6040518163ffffffff167c010000000000000000000000000000000000000000000000000000000002815260040180807f69734578706972656400000000000000000000000000000000000000000000008152506020019050602060405180830381600087803b15801561152a57600080fd5b505af115801561153e573d6000803e3d6000fd5b505050506040513d602081101561155457600080fd5b8101908080519060200190929190505050151514151561157357600080fd5b6000809054906101000a900473ffffffffffffffffffffffffffffffffffffffff1673ffffffffffffffffffffffffffffffffffffffff16636e899550836040518263ffffffff167c010000000000000000000000000000000000000000000000000000000002815260040180807f636f6e74726163744e616d65000000000000000000000000000000000000000081525060200180602001828103825283818151815260200191508051906020019080838360005b83811015611644578082015181840152602081019050611629565b50505050905090810190601f1680156116715780820380516001836020036101000a031916815260200191505b5092505050600060405180830381600087803b15801561169057600080fd5b505af11580156116a4573d6000803e3d6000fd5b50505050816040518082805190602001908083835b6020831015156116de57805182526020820191506020810190506020830392506116b9565b6001836020036101000a03801982511681845116808217855250505050505090500191505060405180910390207fb1f4c5dd42bbcd0e1a2ddcce798d71cb9662626dfb0e8112b240dd9565f6f7d260405160405180910390a260019050919050565b60008015156000809054906101000a900473ffffffffffffffffffffffffffffffffffffffff1673ffffffffffffffffffffffffffffffffffffffff16637ae1cfca6040518163ffffffff167c010000000000000000000000000000000000000000000000000000000002815260040180807f69734578706972656400000000000000000000000000000000000000000000008152506020019050602060405180830381600087803b1580156117f557600080fd5b505af1158015611809573d6000803e3d6000fd5b505050506040513d602081101561181f57600080fd5b8101908080519060200190929190505050151514151561183e57600080fd5b600073ffffffffffffffffffffffffffffffffffffffff168273ffffffffffffffffffffffffffffffffffffffff1614151515611909576040517f08c379a000000000000000000000000000000000000000000000000000000000815260040180806020018281038252602e8152602001807f576f726b657220416464726573732069732061207a65726f206164647265737381526020017f2c206e6f7420616c6c6f7765642e00000000000000000000000000000000000081525060400191505060405180910390fd5b6000809054906101000a900473ffffffffffffffffffffffffffffffffffffffff1673ffffffffffffffffffffffffffffffffffffffff1663ca446dd9836040518263ffffffff167c010000000000000000000000000000000000000000000000000000000002815260040180807f776f726b657200000000000000000000000000000000000000000000000000008152506020018273ffffffffffffffffffffffffffffffffffffffff1673ffffffffffffffffffffffffffffffffffffffff168152602001915050600060405180830381600087803b1580156119ed57600080fd5b505af1158015611a01573d6000803e3d6000fd5b50505050611a0d611fac565b6040518082805190602001908083835b602083101515611a425780518252602082019150602081019050602083039250611a1d565b6001836020036101000a03801982511681845116808217855250505050505090500191505060405180910390208273ffffffffffffffffffffffffffffffffffffffff167f3d54e8c61fabb11353b746d8b70159bca26897fb14822c8502a6df11c2bde2c960405160405180910390a360019050919050565b60008015156000809054906101000a900473ffffffffffffffffffffffffffffffffffffffff1673ffffffffffffffffffffffffffffffffffffffff16637ae1cfca6040518163ffffffff167c010000000000000000000000000000000000000000000000000000000002815260040180807f69734163746976650000000000000000000000000000000000000000000000008152506020019050602060405180830381600087803b158015611b7057600080fd5b505af1158015611b84573d6000803e3d6000fd5b505050506040513d6020811015611b9a57600080fd5b81019080805190602001909291905050501515141515611bb957600080fd5b600015156000809054906101000a900473ffffffffffffffffffffffffffffffffffffffff1673ffffffffffffffffffffffffffffffffffffffff16637ae1cfca6040518163ffffffff167c010000000000000000000000000000000000000000000000000000000002815260040180807f69734578706972656400000000000000000000000000000000000000000000008152506020019050602060405180830381600087803b158015611c6d57600080fd5b505af1158015611c81573d6000803e3d6000fd5b505050506040513d6020811015611c9757600080fd5b81019080805190602001909291905050501515141515611cb657600080fd5b600073ffffffffffffffffffffffffffffffffffffffff166000809054906101000a900473ffffffffffffffffffffffffffffffffffffffff1673ffffffffffffffffffffffffffffffffffffffff166321f8a7216040518163ffffffff167c010000000000000000000000000000000000000000000000000000000002815260040180807f70726f706f7365720000000000000000000000000000000000000000000000008152506020019050602060405180830381600087803b158015611d7e57600080fd5b505af1158015611d92573d6000803e3d6000fd5b505050506040513d6020811015611da857600080fd5b810190808051906020019092919050505073ffffffffffffffffffffffffffffffffffffffff1614151515611ddc57600080fd5b600073ffffffffffffffffffffffffffffffffffffffff168273ffffffffffffffffffffffffffffffffffffffff1614151515611ea7576040517f08c379a00000000000000000000000000000000000000000000000000000000081526004018080602001828103825260308152602001807f50726f706f73657220416464726573732069732061207a65726f20616464726581526020017f73732c206e6f7420616c6c6f7765642e0000000000000000000000000000000081525060400191505060405180910390fd5b6000809054906101000a900473ffffffffffffffffffffffffffffffffffffffff1673ffffffffffffffffffffffffffffffffffffffff1663ca446dd9836040518263ffffffff167c010000000000000000000000000000000000000000000000000000000002815260040180807f6163636570746f720000000000000000000000000000000000000000000000008152506020018273ffffffffffffffffffffffffffffffffffffffff1673ffffffffffffffffffffffffffffffffffffffff168152602001915050600060405180830381600087803b158015611f8b57600080fd5b505af1158015611f9f573d6000803e3d6000fd5b5050505060019050919050565b60606000809054906101000a900473ffffffffffffffffffffffffffffffffffffffff1673ffffffffffffffffffffffffffffffffffffffff1663986e791a6040518163ffffffff167c010000000000000000000000000000000000000000000000000000000002815260040180807f636f6e74726163744e616d6500000000000000000000000000000000000000008152506020019050600060405180830381600087803b15801561205e57600080fd5b505af1158015612072573d6000803e3d6000fd5b505050506040513d6000823e3d601f19601f82011682018060405250602081101561209c57600080fd5b8101908080516401000000008111156120b457600080fd5b828101905060208101848111156120ca57600080fd5b81518560018202830111640100000000821117156120e757600080fd5b50509291905050509050905600a165627a7a723058205861e26be54550e6d6d882fd325f0f7b48ae84831c2ee59c0d8c7fccfc72a3e00029a165627a7a72305820126f35436de61b4b92a268fc4fbef4a7e313e568d57d39978a1533711287a17a0029",
  "source": "pragma solidity ^0.4.23;\n\n\nimport \"../logic/sow.v1.sol\";\nimport \"../proxy/sow.proxy.sol\";\nimport \"./sow.factory.data.sol\";\nimport \"../storage/sow.storage.sol\";\nimport \"./sow.factory.header.sol\";\nimport \"../ownable/ownable.sol\";\n\n\ncontract SOWFactory is SOWFactoryData, SOWFactoryHeader {  \n\n\n    function createSOW(address _owner)\n        public\n        returns (address)\n    {       \n        // todo require _owner to not be null\n        address sowStorageAddr = new SOWStorage();\n        SOWStorage sowStorage = SOWStorage(sowStorageAddr);\n        \n        address sowProxyAddr = new SOWProxy(sowStorage, _owner); \n        SOWProxy sowProxyInstance = SOWProxy(sowProxyAddr);\n        \n        address sowLogicAddr = new SOWContractV1();    \n        sowProxyInstance.upgradeBy(sowLogicAddr, _owner);              \n        emit SOWSuccessfullyCreated(sowStorageAddr,sowLogicAddr,sowProxyAddr, _owner, msg.sender);\n        return sowProxyAddr; \n    }\n\n    function getContractCount() \n    public\n    constant\n    returns(uint contractCount)\n  {\n    return _sowContracts.length;\n  } \n  \n}",
  "sourcePath": "/Users/dennismacpro/Ascension/SOW-Demo/sow-contracts/contracts/factory/sow.factory.sol",
  "compiler": {
    "name": "solc",
    "version": "0.4.23+commit.124ca40d.Emscripten.clang"
  },
  "schemaVersion": "3.0.2",
  "updatedAt": "2019-05-07T00:19:27.041Z",
  "devdoc": {
    "methods": {}
  },
  "userdoc": {
    "methods": {}
  }
}