{
  "contractName": "SOWStorage",
  "abi": [
    {
      "constant": true,
      "inputs": [
        {
          "name": "key",
          "type": "bytes32"
        }
      ],
      "name": "getAddress",
      "outputs": [
        {
          "name": "",
          "type": "address"
        }
      ],
      "payable": false,
      "stateMutability": "view",
      "type": "function"
    },
    {
      "constant": true,
      "inputs": [
        {
          "name": "key",
          "type": "bytes32"
        }
      ],
      "name": "getUint",
      "outputs": [
        {
          "name": "",
          "type": "uint256"
        }
      ],
      "payable": false,
      "stateMutability": "view",
      "type": "function"
    },
    {
      "constant": true,
      "inputs": [
        {
          "name": "key",
          "type": "bytes32"
        }
      ],
      "name": "getBool",
      "outputs": [
        {
          "name": "",
          "type": "bool"
        }
      ],
      "payable": false,
      "stateMutability": "view",
      "type": "function"
    },
    {
      "constant": true,
      "inputs": [
        {
          "name": "key",
          "type": "bytes32"
        }
      ],
      "name": "getString",
      "outputs": [
        {
          "name": "",
          "type": "string"
        }
      ],
      "payable": false,
      "stateMutability": "view",
      "type": "function"
    },
    {
      "constant": false,
      "inputs": [
        {
          "name": "key",
          "type": "bytes32"
        },
        {
          "name": "value",
          "type": "address"
        }
      ],
      "name": "setAddress",
      "outputs": [],
      "payable": false,
      "stateMutability": "nonpayable",
      "type": "function"
    },
    {
      "constant": false,
      "inputs": [
        {
          "name": "key",
          "type": "bytes32"
        },
        {
          "name": "value",
          "type": "uint256"
        }
      ],
      "name": "setUint",
      "outputs": [],
      "payable": false,
      "stateMutability": "nonpayable",
      "type": "function"
    },
    {
      "constant": false,
      "inputs": [
        {
          "name": "key",
          "type": "bytes32"
        },
        {
          "name": "value",
          "type": "bool"
        }
      ],
      "name": "setBool",
      "outputs": [],
      "payable": false,
      "stateMutability": "nonpayable",
      "type": "function"
    },
    {
      "constant": false,
      "inputs": [
        {
          "name": "key",
          "type": "bytes32"
        },
        {
          "name": "value",
          "type": "string"
        }
      ],
      "name": "setString",
      "outputs": [],
      "payable": false,
      "stateMutability": "nonpayable",
      "type": "function"
    }
  ],
  "bytecode": "0x608060405234801561001057600080fd5b50610879806100206000396000f30060806040526004361061008e576000357c0100000000000000000000000000000000000000000000000000000000900463ffffffff16806321f8a721146100935780636e899550146101045780637ae1cfca1461017b578063986e791a146101c4578063abfdcced1461026e578063bd02d0f5146102ab578063ca446dd9146102f0578063e2a4853a14610341575b600080fd5b34801561009f57600080fd5b506100c2600480360381019080803560001916906020019092919050505061037c565b604051808273ffffffffffffffffffffffffffffffffffffffff1673ffffffffffffffffffffffffffffffffffffffff16815260200191505060405180910390f35b34801561011057600080fd5b506101796004803603810190808035600019169060200190929190803590602001908201803590602001908080601f01602080910402602001604051908101604052809392919081815260200183838082843782019150505050505091929192905050506103fe565b005b34801561018757600080fd5b506101aa600480360381019080803560001916906020019092919050505061046f565b604051808215151515815260200191505060405180910390f35b3480156101d057600080fd5b506101f360048036038101908080356000191690602001909291905050506104de565b6040518080602001828103825283818151815260200191508051906020019080838360005b83811015610233578082015181840152602081019050610218565b50505050905090810190601f1680156102605780820380516001836020036101000a031916815260200191505b509250505060405180910390f35b34801561027a57600080fd5b506102a960048036038101908080356000191690602001909291908035151590602001909291905050506105d8565b005b3480156102b757600080fd5b506102da600480360381019080803560001916906020019092919050505061064c565b6040518082815260200191505060405180910390f35b3480156102fc57600080fd5b5061033f6004803603810190808035600019169060200190929190803573ffffffffffffffffffffffffffffffffffffffff1690602001909291905050506106ad565b005b34801561034d57600080fd5b5061037a600480360381019080803560001916906020019092919080359060200190929190505050610748565b005b6000600160003373ffffffffffffffffffffffffffffffffffffffff1673ffffffffffffffffffffffffffffffffffffffff1681526020019081526020016000206000836000191660001916815260200190815260200160002060009054906101000a900473ffffffffffffffffffffffffffffffffffffffff169050919050565b80600360003373ffffffffffffffffffffffffffffffffffffffff1673ffffffffffffffffffffffffffffffffffffffff16815260200190815260200160002060008460001916600019168152602001908152602001600020908051906020019061046a9291906107a8565b505050565b6000600260003373ffffffffffffffffffffffffffffffffffffffff1673ffffffffffffffffffffffffffffffffffffffff1681526020019081526020016000206000836000191660001916815260200190815260200160002060009054906101000a900460ff169050919050565b6060600360003373ffffffffffffffffffffffffffffffffffffffff1673ffffffffffffffffffffffffffffffffffffffff168152602001908152602001600020600083600019166000191681526020019081526020016000208054600181600116156101000203166002900480601f0160208091040260200160405190810160405280929190818152602001828054600181600116156101000203166002900480156105cc5780601f106105a1576101008083540402835291602001916105cc565b820191906000526020600020905b8154815290600101906020018083116105af57829003601f168201915b50505050509050919050565b80600260003373ffffffffffffffffffffffffffffffffffffffff1673ffffffffffffffffffffffffffffffffffffffff1681526020019081526020016000206000846000191660001916815260200190815260200160002060006101000a81548160ff0219169083151502179055505050565b60008060003373ffffffffffffffffffffffffffffffffffffffff1673ffffffffffffffffffffffffffffffffffffffff16815260200190815260200160002060008360001916600019168152602001908152602001600020549050919050565b80600160003373ffffffffffffffffffffffffffffffffffffffff1673ffffffffffffffffffffffffffffffffffffffff1681526020019081526020016000206000846000191660001916815260200190815260200160002060006101000a81548173ffffffffffffffffffffffffffffffffffffffff021916908373ffffffffffffffffffffffffffffffffffffffff1602179055505050565b806000803373ffffffffffffffffffffffffffffffffffffffff1673ffffffffffffffffffffffffffffffffffffffff16815260200190815260200160002060008460001916600019168152602001908152602001600020819055505050565b828054600181600116156101000203166002900490600052602060002090601f016020900481019282601f106107e957805160ff1916838001178555610817565b82800160010185558215610817579182015b828111156108165782518255916020019190600101906107fb565b5b5090506108249190610828565b5090565b61084a91905b8082111561084657600081600090555060010161082e565b5090565b905600a165627a7a72305820d0896342438f11eba14200c2603a218608d59310637627b58baf55ef044a3fed0029",
  "source": "pragma solidity ^0.4.23;\n  \n\ncontract SOWStorage {  \n\n  mapping(address => mapping(bytes32 => uint256)) _uintStorage;\n  mapping(address => mapping(bytes32 => address)) _addressStorage;\n  mapping(address => mapping(bytes32 => bool)) _boolStorage;\n  mapping(address => mapping(bytes32 => string)) _stringStorage;\n\n\n  /**** Get Methods ***********/\n\n  function getAddress(bytes32 key) public view returns (address) {\n      return _addressStorage[msg.sender][key];\n  }\n\n  function getUint(bytes32 key) public view returns (uint) {\n      return _uintStorage[msg.sender][key];\n  }\n\n  function getBool(bytes32 key) public view returns (bool) {\n      return _boolStorage[msg.sender][key];\n  }\n\n  function getString(bytes32 key) public view returns (string) {\n      return _stringStorage[msg.sender][key];\n  }\n\n  /**** Set Methods ***********/\n\n  function setAddress(bytes32 key, address value) public {\n    _addressStorage[msg.sender][key] = value;\n  }\n\n  function setUint(bytes32 key, uint256 value) public {\n      _uintStorage[msg.sender][key] = value;\n  }\n\n  function setBool(bytes32 key, bool value) public {\n      _boolStorage[msg.sender][key] = value;\n  }\n\n  function setString(bytes32 key, string value) public {\n      _stringStorage[msg.sender][key] = value;\n  }\n}",
  "sourcePath": "/Users/dennismacpro/Ascension/SOW-Demo/sow-contracts/contracts/storage/sow.storage.sol",
  "compiler": {
    "name": "solc",
    "version": "0.4.23+commit.124ca40d.Emscripten.clang"
  },
  "schemaVersion": "3.0.2",
  "updatedAt": "2019-04-01T00:01:27.943Z",
  "devdoc": {
    "methods": {}
  },
  "userdoc": {
    "methods": {
      "getAddress(bytes32)": {
        "notice": "** Get Methods **********"
      },
      "setAddress(bytes32,address)": {
        "notice": "** Set Methods **********"
      }
    }
  }
}